:1000000019C033C032C031C030C02FC02EC02DC087
:100010002CC02BC02AC029C028C027C026C025C09C
:1000200024C023C022C021C020C01FC01EC01DC0CC
:100030001CC01BC011241FBECFEFD2E0DEBFCDBF5E
:1000400011E0A0E0B1E0EAEBF1E002C005900D9212
:10005000A430B107D9F721E0A4E0B1E001C01D92BE
:10006000A930B207E1F702D0A6C0CACF80917C00C8
:10007000806280937C00109205011092040110921E
:100080000601109208011092070187E07ED004E17A
:1000900010E0C0E0D1E080917A0086FD24C0E090BD
:1000A0000401F090050156D08E0D9F1D909305011F
:1000B0008093040187E069D0809106018F5F80936F
:1000C0000601843181F48091040190910501B80109
:1000D0005ED07093080160930701109206011092A0
:1000E0000501109204015998519A8091070190914D
:1000F00008019E01281B390BC9016F9364E06A95C2
:10010000F1F76F910197C9F7599A519A80910701B8
:100110009091080101966F9364E06A95F1F76F91F1
:100120000197C9F7B8CF80917C0090E025E09595C4
:1001300087952A95E1F781700895F5DF882321F0EE
:100140002091790030E004C020917800309179004E
:10015000C9010895F2CF08958032B0F497E89093E2
:100160007A0090917C00292F2064662311F0906C16
:1001700002C0922F9F77907E982B90937C00809165
:100180007A00806480937A00089560E0E5CFAA1B2E
:10019000BB1B51E107C0AA1FBB1FA617B70710F072
:1001A000A61BB70B881F991F5A95A9F780959095A4
:0A01B000BC01CD010895F894FFCFC3
:0401BA0001881300A5
:00000001FF
