:1000000056C000007BC0000079C0000077C000002F
:1000100075C0000073C0000071C000006FC0000018
:100020006DC000000C94700B69C0000067C0000038
:1000300065C00000E6C7000061C000005FC00000AE
:100040005DC000005BC0000059C0000057C0000048
:1000500055C0000053C0000051C000004FC0000058
:100060004DC000004BC000004C3136206364656712
:1000700072656734003E6733323E3E63333200734D
:100080006F6C766572004D617A650033F720526FB0
:10009000626F740020506F6C6F6C75000000000080
:1000A0000000001F1F1F1F1F1F1F2C0C2D0C1124D1
:1000B0001FBECFEFD8E0DEBFCDBF11E0A0E0B1E0C2
:1000C000EAE6F6E202C005900D92AA36B107D9F72A
:1000D00023E0AAE6B1E001C01D92A239B207E1F720
:1000E00010E0CCEAD0E004C02297FE010E94EF119C
:1000F000CA3AD107C9F7E2D30C94291381CF809172
:1001000000018F5F809300010895AAE0B0E0EBE862
:10011000F0E00C94C41180ED97E00E942A0CA4D06A
:1001200084E990E00E94BC0961E080E00E94310A0D
:100130008BE890E00E94BC0985E790E0DDD788EE6F
:1001400093E00E94B70B0E94980986E890E00E9415
:10015000BC0961E080E00E94310A8FE790E00E94D4
:10016000BC0988EE93E00E94B70B80E10E94660B09
:1001700081111AC089D48C010E949809B80188277E
:1001800077FD8095982F0E94120A82E491E00E94E8
:10019000AD0961E080E00E94310A85E491E00E94AF
:1001A000AD0984E690E0DFCF80E10E94560B88EE37
:1001B00093E00E94B70B0CEE1FEF0832110528F0F8
:1001C00068ED7FEF88E290E004C068E270E088EDBF
:1001D0009FEF0E942B0B81E00E94F00B84E190E0E6
:1001E0000E94B70B0F5F1F4F0C33110531F760E012
:1001F00070E080E090E00E942B0B80E10E94660B93
:10020000811119C061E0CE0101960E94F40B8C01AE
:100210000E949809B80180E090E00E94120A61E013
:1002200080E00E94310ACE0101963CD084E690E045
:100230000E94B70BE2CF80E10E94560B0E94980902
:100240008DE491E00E94AD0988E690E055D739D75A
:100250008111FDCF2A96E4E00C94E0118091010118
:100260008F5F80930101089560E08CE990E0F5D7FD
:1002700061E08DE990E0F1D762E08EE990E0EDD7A2
:1002800063E08FE990E0E9D764E080EA90E0E5D7A9
:1002900065E081EA90E0E1D766E082EA90E0DDD7B0
:1002A0000C949809AAE0B0E0E8E5F1E00C94C011E4
:1002B0008C01D12C8AE0C82E95E6E92EF12CE8E3DA
:1002C000F1E0DE0111968C2D01900D928A95E1F7F7
:1002D000F801819191918F01B7010E94471181E04E
:1002E00090E08C0F9D1F680F791FFB018081B7D7AD
:1002F000D394F5E0DF12E3CF2A96E8E00C94DC110A
:10030000809102018F5F809302010895811106C0E0
:10031000611106C0442331F082E508958CE408950C
:1003200083E5089582E40895882339F0442361F039
:10033000662379F084E390E00895442369F066230E
:1003400059F082E390E00895662331F081E390E074
:10035000089583E390E0089580E390E00895CF93BB
:10036000C0916A01C33008F449C02C2F30E02559F0
:100370003E4FF90132978081823409F03FC041E05D
:1003800050E080E090E0B901FB01E41BF50BE08157
:10039000EC3451F0E23529F0E23441F48C549F4FB3
:1003A00005C0865A9F4F02C0825F9E4F4F5F5F4FCE
:1003B0004430510549F768E671E00E945B118A35C7
:1003C000910589F034F4892BB1F4F901339783E571
:1003D00011C0843B910559F08E30914061F4F901D0
:1003E00033978CE407C0F901339782E503C0F90124
:1003F000339782E48083C250C0936A01CF910895FD
:10040000ABE0B0E0E6E0F2E00C94BA11BAD162E3FE
:1004100070E082E390E00E942B0B82E390E00E9468
:10042000B70B61E0CE0101960E94F40BFF24F39418
:1004300029813A812536310508F4F12C01E029851E
:100440003A852536310508F400E068E270E088E27C
:1004500090E00E942B0B88EC90E00E94B70B61E0CB
:10046000CE0101960E94F40B2B813C81293C310581
:1004700060F42D813E81293C3105A0F42F8138851F
:10048000293C310578F410E00EC02935324050F097
:100490002D813E812935324028F02F81388529353C
:1004A0003240F8F411E0402F612F8F2D2FDFE82E1E
:1004B000402F612F8F2D38DF8C018E2DE3D180915D
:1004C000DA01E82FF0E0DF01A552BE4FEC92EE0F0B
:1004D000FF1FEA53FD4F118300838F5F8093DA0182
:1004E00095CFB4E6EB2EF12C1092CF0160E070E0D6
:1004F00080E090E00E942B0B81E591E0EFD580E158
:100500000E94660B81110FC013D787E591E025D7B4
:1005100061E080E0A6D785E491E01FD78EE190E00E
:100520000E94B70BECCF80E10E94660B8111FBCFDC
:10053000FFD681E691E011D761E080E092D78DE4AB
:1005400091E00BD788EE93E00E94B70B00E010E03B
:1005500018D162E370E082E390E00E942B0B82E30B
:1005600090E00E94B70B61E0CE0101960E94F40B6F
:10057000CE01019697DEDD24D39429813A81253678
:10058000310508F4D12CCC24C39429853A8525362D
:10059000310508F4C12C68E270E088E290E00E9426
:1005A0002B0B88EC90E00E94B70B61E0CE01019626
:1005B0000E94F40B2B813C81293C310568F42D818C
:1005C0003E8191E0293C310540F42F813885293C5A
:1005D000310518F490E001C091E04C2D692F8D2D6C
:1005E0009B8794DEB82E4C2D9B85692F8D2D9CDE2C
:1005F0006C018B2D47D18091CF01E82FF0E0DF0116
:10060000A053BE4FBC92EE0FFF1FEE54FD4FD182A0
:10061000C0828F5F92E4B91611F00F5F1F4F809375
:10062000CF01043011050CF493CF4091CF0150E07D
:100630008701041B150BA0900301B090040120E07A
:1006400030E02017310764F02F5F3F4F243631052B
:10065000C1F7A0920301B092040100E010E033C0A2
:1006600080E090E03901640E751E8417950764F7E9
:10067000F901E80FF91FDF01A552BE4F4D01BC0182
:1006800060537E4FDB01DC90D4016C91D61214C014
:10069000DC01AA0FBB1FAE54BD4FEE0FFF1FEA5384
:1006A000FD4F0D90BC91A02D0190F081E02DAE1773
:1006B000BF0711F4019602C084E690E08417950705
:1006C000A1F65301D2CF80910301909104019701CB
:1006D000281B390B02171307A4F420916A01E22F9B
:1006E000F0E0E559FE4FD801A552BE4FA80FB91F43
:1006F0008C9180832F5F20936A0131DE0F5F1F4F43
:10070000E2CF0BE611E080916A0190E098012B5650
:100710003140281739070CF0E7CE33D062E370E0A0
:1007200082E390E098D782E390E00E94B70B68E202
:1007300070E088E290E08FD788EC90E00E94B70BE1
:10074000F80181918F019ED061E0CE0101960E9457
:10075000F40B8B819C8189359240A8F28D819E811A
:100760008935924080F28F8198858935924058F280
:1007700010926A01C8CF809105018F5F80930501B7
:100780000895AAE0B0E0E7ECF3E00C94B611C12CB8
:10079000D12C7601A12CB12C50E1452E57E2552EDB
:1007A000612C712C64E1262E312C7CE3872E912C58
:1007B00061E0CE0101960E94F40B8C01005D1740B0
:1007C000C801AA2797FDA095BA2FC80ED91EEA1E08
:1007D000FB1EC701B601A30192010E949011B8014E
:1007E0006A197B09CB01880F991F860F971F97FD08
:1007F0000196FC01F595E795E20FF31FC801B101E1
:100800000E945B11E60FF71FED33F10574F4E43C31
:100810008FEFF8071CF0F7FD03C009C0E4ECFFEF11
:100820006CE370E0CF01CC9607C0ECE3F0E0B401DC
:100830006E1B7F0B8CE390E00ED78B819C818436FE
:10084000910550F48D819E818436910528F48F8125
:1008500098858436910560F089819A81893C91055B
:1008600038F489859A85893C910510F45801A0CF08
:100870002A96E2E10C94D211809106018F5F809359
:10088000060108958C3461F0823579F08234A9F440
:1008900060EB7FEF80E590E0DED680E991E00CC070
:1008A00060E570E080EB9FEF04C060EB7FEF80E5D8
:1008B00090E0D1D688EC90E05AC7089526DCA0DD00
:1008C000FFCF882321F480917C008F7D03C080912D
:1008D0007C00806280937C00089580917C0090E091
:1008E00025E0959587952A95E1F781700895809187
:1008F0007A0090E036E0959587953A95E1F781701A
:100900000895EBDF882321F02091790030E004C0C6
:100910002091780030917900C90108958032B0F4B7
:1009200097E890937A0090917C00292F20646623A9
:1009300011F0906C02C0922F9F77907E982B90932D
:100940007C0080917A00806480937A000895A0E012
:10095000B0E0EDEAF4E00C94C0116B0160E0DEDF82
:10096000C6DF8823E9F7E601EE24FF2487018091A2
:100970007A00806480937A00BADF8823E9F7C1DFC8
:10098000A0E0B0E0E80EF91E0A1F1B1F219779F7BF
:10099000C6019695879520E4C216D10440F48E0DC9
:1009A0009F1D6C2D70E00E944711CB010DC0BC0152
:1009B00080E090E06E0D7F1D801F911F960140E04A
:1009C00050E00E946E11C901CDB7DEB7E8E00C948B
:1009D000DC11A3E0B0E0EFEEF4E00C94C511BC0133
:1009E00080E090E0209107013091080140E050E064
:1009F0000E942C11182F69837A839B836EDF698193
:100A00007A819B81882371F09B01412F592FCA0164
:100A1000B90161587F4F8F4F9F4F2FEF30E040E07B
:100A200050E00DC09B01412F592FCA01B9016150FF
:100A30007E4F8F4F9F4F2FEF33E040E050E00E94FA
:100A40006E11C9012396E3E00C94E11180DFC1CF60
:100A50001F93CF93DF9341DF182F80E032DF86E0D2
:100A60006AE070E0F3DFEC01812F2BDF9E01220FA3
:100A7000331F2C0F3D1F2F5F3F4F36952795C90120
:100A8000DF91CF911F910895E3CF08959091440293
:100A9000E0914002F0914102992311F0849101C04C
:100AA0008081282F21542A3110F4805E08958032ED
:100AB00071F42091400230914102A9014F5F5F4FD4
:100AC00050934102409340022115310509F70895E2
:100AD000EF92FF92CF93DF93D9DFC0E0D0E01AC04E
:100AE0009E01220F331F93E0CC0FDD1F9A95E1F793
:100AF000C20FD31F992787FD9095C80FD91FE09784
:100B0000809140029091410201969093410280931E
:100B10004002BCDF982F90539A3010F3CE01DF9142
:100B2000CF91FF90EF90089510926F0083E2809331
:100B3000800081E1809381001092820080E197E241
:100B4000909389008093880010928B0010928A0005
:100B5000229A7894089580913F02882321F481E0BD
:100B600080933F02E1CF0895A0E0B0E0EAEBF5E02A
:100B70000C94BC118C015B01E42EEDDF1092090195
:100B800017FF04C01F77AAE0FA2E02C0FF24F394D7
:100B9000C0908100DD2428EFC222DD2488EC3F2DA7
:100BA000389FC001112480179107D8F4E80167E24B
:100BB0000131160710F0C0E1D7E2BE0176956795C6
:100BC00080E090E06058794687469F4F9E0140E064
:100BD00050E00E946E11890181E090E0C82AD92A74
:100BE0002CC098E2F99E902D112480E0892EE4011A
:100BF0004E01982EE4018016910608F4E801BE012A
:100C0000769567959E0140E050E08F2D8A3039F44B
:100C100080E090E0605E734481449F4F06C080E0B6
:100C200090E060537D4E8C4E9F4F0E946E11890163
:100C300052E0852E912CC828D9282F2D2A3039F43E
:100C4000CE0105966AE070E00E944711EB0133E0A7
:100C5000C83ED30779F0BE0180E090E0950140E006
:100C600050E00E942C1128EE33E040E050E00E945A
:100C7000901101C0950110926F00C09281001093F5
:100C800089000093880040918800509189006E2D62
:100C9000603108F06FE080E190E0861B9109BA01B5
:100CA00002C0769567958A95E2F770938B00609302
:100CB0008A00309347022093460286B38FEF86BBAB
:100CC00081E080936F00CDB7DEB7ECE00C94D811D3
:100CD0009B018F3F11F0442329F488EE93E0B90182
:100CE00040E049C0813130F0582F5051503618F053
:100CF0005FE501C050E0852F6CE00E943B11A82FFA
:100D0000B0E0E4EFFFEFAE9FB001AF9F700DBE9F6C
:100D1000700D1124650F711D6C30710540F4FB01DD
:100D2000EE0FFF1FED5EFE4F6081718102C060E03B
:100D300070E0873081F0082E02C0660F771F0A949A
:100D4000E2F7823028F0CB0105966AE070E00CC033
:100D5000605070480BC0CB01B6E0880F991FBA9560
:100D6000E1F7029665E070E00E944711403108F01B
:100D70004FE0CB01B901F8CEA0E0B0E0E2ECF6E044
:100D80000C94BB11B0900A0180914202882359F063
:100D900060914302662339F08FEF70E040E098DF06
:100DA0001092430229C1C0ECDDE5AA24A39414E00B
:100DB000712E00ED17E0B4E0EB2EF12CA4EFCA2E5B
:100DC000A1E0DA2EFFE08F2E912C60DE2091400210
:100DD000309141022F5F3F4F3093410220934002F8
:100DE0008636F1F18736CCF4823609F4AAC0833610
:100DF0007CF48E3349F18F333CF4813209F482C0A4
:100E00008C3309F096C022C0813609F092C096C09A
:100E1000843601F185360CF51BC08F3609F445C0C8
:100E2000803744F48C3611F18D3659F1873609F04C
:100E300080C019C0843709F441C0863709F45CC00A
:100E4000823709F076C036C0B394BFCFBA94BDCF15
:100E5000EE2432C0EE2482E076C0EE2484E073C03B
:100E6000EE2485E070C0EE2487E06DC031DEBC0169
:100E700090930C0180930B0180910D0190910E01D4
:100E800034C004DE8C3619F41092420204C0A092E1
:100E900042021092430280914002909141020196D9
:100EA000909341028093400290CF12DEB82E80933F
:100EB0000A018BCFEE24E39480E045C009DEBC013B
:100EC000CE010E944711CB01880F991F53E0660F96
:100ED000771F5A95E1F7860F971F90930E01809325
:100EE0000D0160910B0170910C010E9447117093EC
:100EF000100160930F0169CFEBDD90931201809395
:100F0000110163CF70920A0110930E0100930D013D
:100F1000F0920C01E0920B01D0921001C0920F01EF
:100F200090921201809211011092420244E0B42E7C
:100F30004CCF10924102109240025EC0EE2489E034
:100F400002C0EE248BE09CE0B99EB02C1124B80EB8
:100F50009DDD8B3211F08332B1F48091400290918B
:100F6000410201969093410280934002B394F0CFE6
:100F700080914002909141020196909341028093AA
:100F80004002BA9483DD8D3299F3C0910F01D09164
:100F900010018153883050F4C0910D01D0910E01A1
:100FA00097DDBC01CE010E944711EB018E010BC001
:100FB000809140029091410201969093410280936A
:100FC0004002C00FD11F1695079560DD8E3281F368
:100FD00080914202882339F0CE01969587958093BF
:100FE0004302C81BD109EE2011F0BB24BA948B2D0B
:100FF000BE01409111016CDECDB7DEB7EDE00C947F
:10100000D7111F920F920FB60F9211242F933F9377
:101010004F935F936F937F938F939F93AF93BF9300
:10102000EF93FF9380914602909147029C012150DB
:1010300030403093470220934602009709F5109202
:101040006F00789480918100887F81608093810017
:1010500080E197E2909389008093880010928B0042
:1010600010928A0081E08093090180914002909162
:101070004102009729F080914502882309F47CDE23
:10108000FF91EF91BF91AF919F918F917F916F9160
:101090005F914F913F912F910F900FBE0F901F9036
:1010A000189580910901882351F081E02091400238
:1010B000309141022115310519F480E0089581E055
:1010C0000895EFCF089510926F009093410280939E
:1010D000400210924402109243024ECEF4CF089583
:1010E00010926F00909341028093400281E08093C0
:1010F00044021092430240CEF3CF089581E090E085
:101100006F9364E06A95F1F76F910197C9F70895BD
:101110000F931F93CF93DF931AB157985A98289A39
:10112000C0E0D0E0EBDF5C9AE9DF09B15C98E6DF74
:101130005C9AE4DF5C9807FF11C024969E0140E0B2
:1011400050E080914C0290914D02A0914E02B091DE
:101150004F02281739074A075B0720F31AB9DF91B6
:10116000CF911F910F91089565B190E0AC0141704E
:101170005070440F551F9C012670307053E0220FB1
:10118000331F5A95E1F7242B6D7C262B25B92BB103
:101190008870907034E0880F991F3A95E1F72F77A7
:1011A000282B2BB95C9AAADF5C98A8CFA2E0B0E00C
:1011B000ECEDF8E00C94C111182F4A83698384D0B8
:1011C000A7DFF4B005B1DAB0EBB0289869814A81A5
:1011D000662311F05A9A01C05A9884B1826384B987
:1011E000579A413021F0812F82958F70BDDF812F7A
:1011F0008F70BADFDAB8EBB8F4B805B92296E7E039
:101200000C94DD1160E042E0D1CF61E042E0CECF4E
:10121000EF92FF921F93DF93CF930F92CDB7DEB77C
:10122000660F660F660F482F592F7A0110E0812F45
:10123000860F80646983E6DFF7018491E6DF1F5F34
:101240000894E11CF11C6981183089F70F90CF9147
:10125000DF911F91FF90EF900895DACF0895D5CFD9
:10126000089560E041E0A2CF80E197E2A0E0B0E025
:1012700080934C0290934D02A0934E02B0934F0284
:10128000529A209A549A8EE190E071D283E0E9DF7D
:1012900086E090E06CD283E0E4DF82E090E067D209
:1012A00083E0DFDF82E090E062D282E0DADF82E09A
:1012B00090E05DD288E2A6DF88E0A4DF81E0A2DFD3
:1012C00086E0A0DF8CE09ECF80915002882321F43D
:1012D00081E080935002C8CF089581E093DF809130
:1012E000480290914902009711F1A0E0B0E208C0D5
:1012F000E0914802F0914902E20FF31FB083AF5F23
:101300002A2F30E080912B0190E0019760912C0111
:1013100070E0869FA001879F500D969F500D11246D
:10132000241735072CF310924B0210924A020895AD
:10133000D4CF0895EF92FF92CF93DF93E82EE70189
:101340007E01F92EE70101C060DF89918823E1F772
:10135000DF91CF91FF90EF900895ECCF0895CF9358
:10136000DF93EC0102C051DF2196FE0184918823B6
:10137000D1F7DF91CF910895F2CF0895AAE0B0E0C0
:10138000E3ECF9E0FBC79B01AC011AE0EAE0CE2EEA
:10139000D12CE12CF12C5E010894A11CB11C022F70
:1013A000CA01B901A701960199D71150F501E10FC2
:1013B000F11D005D922F990F892F880F880F890FDB
:1013C000081B0083211531054105510541F707C070
:1013D000F601E10FF11D808118DF1F5F04C06E016F
:1013E0000894C11CD11C1A3098F32A96EAE0E2C78F
:1013F000EF92FF920F931F937B018C0197FF0AC01E
:1014000010950095F094E094E11CF11C011D111D54
:101410008DE2FBDEC801B701B1DF1F910F91FF9094
:10142000EF900895E5CF0895A5E0B0E0E9E1FAE096
:10143000ACC7182F80E8898380EC8A8384E98B838A
:1014400084ED8C83FE01E60FF11D8181810F6D8398
:10145000D9DE10934B026D8160934A022596E3E03A
:10146000B0C7E2CF0895FC0111821082138212826C
:10147000158214821682683068F489E290E09183C4
:1014800080838BE290E0938382838AE290E095836D
:10149000848311C06E30C0F483E290E09183808336
:1014A00085E290E09383828384E290E09583848355
:1014B00070E06850704081E090E002C0880F991F92
:1014C0006A95E2F7868308956531B8F486E290E084
:1014D0009183808388E290E09383828387E290E027
:1014E0009583848370E06E50704081E090E002C08C
:1014F000880F991F6A95E2F786830895FC01A481FD
:10150000B5818681662321F09C91982B9C93089548
:101510009C91809589238C930895FC016F3F31F451
:10152000A281B3818C91968189270CC0A281B3815D
:101530008681662321F09C91982B9C9308959C9121
:10154000809589238C930895A7E0B0E0E9EAFAE05A
:101550001AC7282FF62E8E010F5F1F4FC801622F6A
:1015600082DFC8016F2DD9DFC80161E0C7DF279690
:10157000E5E025C7E0EBF0E083EF8083808184BD68
:10158000E1EBF0E082E08083808185BDE4EBF0E078
:1015900010828081E3EBF0E08083808188BD88B594
:1015A00087BD86E060E0D0DF85E060E0CDDF8BE0E6
:1015B00060E0CADF83E060E0C7CF809151028823FA
:1015C00021F481E080935102D5CF0895CF93DF932A
:1015D000EC01F3DFD7FF05C0D095C195DF4F81E067
:1015E00001C080E0CF3FD10519F014F0CFEFD0E07B
:1015F000882319F018BCC7BD02C0C8BD17BCDF9155
:10160000CF910895CF93DF93EC01D7DFD7FF05C0CB
:10161000D095C195DF4F81E001C080E0CF3FD1057B
:1016200019F014F0CFEFD0E0882329F01092B40025
:10163000C093B30004C0C093B4001092B300DF9114
:10164000CF910895CF93DF93EB01C0DFCE01DADFB6
:10165000DF91CF910895F6CF089584B18D7C84B940
:1016600085B1826385B985E090E06F9364E06A9507
:10167000F1F76F910197C9F708958091520288237D
:1016800021F481E080935202E8CF08951F93182F30
:10169000F4DF83B18123E9F38AE090E068D083B17D
:1016A0008123B9F383B181231F910895EFCF08956A
:1016B000A1E0B0E0EDE5FBE069C68983DEDF93B130
:1016C0009095898189232196E2E07CC6F1CF089527
:1016D0006F9364E06A95F1F76F910197C9F70895E8
:1016E0002F928F939F932FB6809160029091610209
:1016F0000196809360029093610290E08091620273
:10170000891F80936202909168029C5F90936802A7
:101710008091670280519742C0F090936802809355
:101720006702809163029091640201968093630244
:101730009093640290E080916502891F8093650216
:1017400080916602891F809366022FBE9F918F91C0
:101750002F901895CF93DF93EC0104C088EE93E0AF
:10176000B7DF21972097D1F7DF91CF910895F2CF7E
:101770000895E0E7F0E080818E7F8083A0EBB0E009
:101780008C9183608C93A1EBB0E08C91807F8C93E3
:101790008C9182608C93B89A8081816080837894E8
:1017A000089580916902882321F481E08093690281
:1017B000E0CF0895F6DFE0E7F0E080818E7F808360
:1017C00010926302109264021092650210926602F7
:1017D0001092680210926702808181608083089570
:1017E000682F8AE692E0FCC49C01462F8AE692E0CC
:1017F000B90120E05EC30F93DF93CF9300D000D0F8
:101800000F92CDB7DEB79C01962FDE011196EDE267
:10181000F1E085E001900D928150E1F7BE016F5F2C
:101820007F4F992329F08AE692E045E00FEF04C04C
:101830008AE692E045E003E16CD08AE692E042D08D
:10184000B9DF0F900F900F900F900F90CF91DF9115
:101850000F91089560E0CFCF08958AE692E0E2C448
:101860006F9364E06A95F1F76F910197C9F7089556
:10187000A7E0B0E0EDE3FCE087C58C01FC0111823C
:1018800010821382128215821482178216826131AD
:1018900018F080E1808702C0FC016087F801208B8E
:1018A000CE010196642FDFDD8F81F80181878B8166
:1018B0009C81938782878D819E81958784872796D7
:1018C000E4E07EC5FC01A485B585109771F08C918C
:1018D0009185892B8C93A285B3859C918185809578
:1018E00089238C9388EC90E0BBCF0895FC01A485FC
:1018F000B585109769F08C919185892B8C93A28581
:10190000B3858C919185892B8C9388EC90E0A8CF3E
:101910000895A7E0B0E0EEE8FCE028C57C011B01DB
:10192000642F3901402F20E0A3DF97012F5B3F4F49
:10193000F9011082D701AE5BBF4F1C92C7018D5BCE
:101940009F4FFC011082F7017786668666242E0180
:101950000894411C511C6C015D01490128C0062DF1
:1019600010E0F101E00FF11FC20160817CDD2F81E9
:10197000F701E00FF11F218B89819A81F801EE0FA9
:10198000FF1FEE0DFF1D92A381A38332910511F479
:10199000F40109C08632910511F4F50104C08932C1
:1019A000910521F4F6018081822B80836394F701F5
:1019B00080856816A0F22796E2E1F4C4A0E0B0E0CA
:1019C000E3EEFCE0D8C4EC015B01FC01EF5BFF4FF0
:1019D0009080FC01EE5BFF4F8080FC01ED5BFF4FD0
:1019E000708080E009C0E82FF0E0EE0FFF1FEA0DE5
:1019F000FB1D118210828F5F98858917A0F384B137
:101A000021E4E22EF12CEC0EFD1ED7019C91892BD6
:101A100084B987B18E010E5B1F4FF8019081892B2D
:101A200087B98AB193E4C92ED12CCC0EDD1ED60124
:101A30009C91892B8AB985B1F7019081892B85B951
:101A400088B1D8019C91892B88B98BB1F60190811E
:101A5000892B8BB98AE090E003DF94B1D7018C9198
:101A60008095892384B997B1F80180818095892375
:101A700087B99AB1D6018C91809589238AB995B19D
:101A8000F70180818095892385B998B1D8018C911F
:101A90008095892388B99BB1F6018081809589233F
:101AA0008BB9C090B000E090B1008091B00083602D
:101AB0008093B00082E08093B1000091B20080E09A
:101AC00090E039C02091B200201B820F911D020FBF
:101AD000F3B0F91409F04DC096B0981409F049C05C
:101AE00029B1271509F045C024C0212F30E0A901F4
:101AF000440F551FF501E40FF51F608171816115D9
:101B0000710599F44C0F5D1FDA0191964D915C912E
:101B10009297DA014C912C0F3D1FD90151962C91CF
:101B20005197422311F4918380831F5F28851217F8
:101B3000E0F2892C9F2C2E853F858217930710F2A7
:101B4000C092B000E092B10020E00FC0E22FF0E0C0
:101B5000EE0FFF1FEA0DFB1D80819181009721F49C
:101B60008E859F85918380832F5F8885281770F3EA
:101B700005C0F3B096B079B010E0D8CFCDB7DEB7DE
:101B8000EDE015C4EF92FF920F931F93CF93DF9375
:101B9000FC019B0100917C0010917A00E7B0F8B045
:101BA00080917A0086FDFCCF80E00AC0A82FB0E0CB
:101BB000AA0FBB1FA20FB31F11961C921E928F5F1C
:101BC0009085891798F397B182A18095892387B969
:101BD00098B182A18095892388B987E880937A009B
:101BE00070E029C0DF01A60FB11D51968C9151976D
:101BF000806480937C0080917A00806480937A0076
:101C000080917A0086FDFCCFA62FB0E0AA0FBB1F03
:101C1000A20FB31F40917800509179008D919C9153
:101C20001197840F951F11969C938E936F5F8085FB
:101C30006817C0F27F5F81A1781710F460E0F7CFDA
:101C400040E013C0C42FD0E0CC0FDD1FC20FD31F64
:101C500061A170E0CB0195958795A881B9818A0F24
:101C60009B1F15D3798368834F5F8085481750F396
:101C700000937C0010937A00F8B8E7B8CDB7DEB7D0
:101C8000E6E09CC3A0E2B0E0E7E4FEE07AC38C01AA
:101C90007B01D42E842F8150823010F4C80126DEBF
:101CA000D80150968C915097882371F4C801B701E0
:101CB00085DEC80107DEBD2DB230B9F5C801BE0111
:101CC0006F5F7F4F7BDE0DC0C801B7015BDFC801CE
:101CD000F9DDED2DE23049F5C801BE016F5F7F4FA0
:101CE00051DF60E0AE014F5F5F4F1BC0862F90E079
:101CF000880F991FF701E80FF91F840F951FD8016E
:101D00001E962D913C911F97DC018D919C9111970E
:101D1000281B390B80819181820F931F91838083CF
:101D20006F5FF8018085681708F3A096E7E045C368
:101D30008F929F92AF92BF92CF92DF92FF920F93BA
:101D40001F93CF93DF93EC01C62E072FF42E423062
:101D500011F0FF2051F48C819D81009709F49DC002
:101D60008E819F81009709F498C08F2D8150823019
:101D700050F488819981009709F48FC08A819B81F2
:101D8000009709F48AC0CE016C2D702F4F2D7ADF99
:101D9000AC2CB02E00E010E08824992478C08F2D60
:101DA000813059F4EA81FB81E00FF11FC080D180BE
:101DB000E881F981E00FF11F0DC08C819D81FF202A
:101DC00061F4EE81FF81E00FF11FC080D180800FB0
:101DD000911FFC01408151812BC0800F911FFC019C
:101DE00080819181E881F981E00FF11F408151816B
:101DF000CE84DF848417950710F4A60104C04C0D2F
:101E00005D1D481B590BEE81FF81E00FF11F8081A2
:101E10009181EA81FB81E00FF11F20813181CE8425
:101E2000DF848217930720F0C20ED31EC81AD90A86
:101E3000C41AD50AC1F0F5016081718180E090E09B
:101E40009A0140E050E0621B730B840B950B28EE67
:101E500033E040E050E000D2960140E050E060D234
:101E600037FD0AC002C020E030E0F3E0293E3F0722
:101E70002CF028EE33E002C020E030E0F5012193A1
:101E800031935F010894811C911C0E5F1F4F888560
:101E900090E0881699060CF482CFDF91CF911F91C4
:101EA0000F91FF90DF90CF90BF90AF909F908F9059
:101EB0000895A5E0B0E0EEE5FFE058C24C01C62E63
:101EC000E72E2D8335DFD40118964C901897DE2C21
:101ED000642D70E080E090E028EE33E040E050E0D8
:101EE000BBD169837A838B839C83EE24FF24870193
:101EF00066247724882499245401552435C0F6019A
:101F00003081218142E0242E312CC20CD31CC90126
:101F1000492F582F1A012D81222329F088EE93E0B2
:101F2000821993091C0199EC291631042CF4A3E3BE
:101F30002A1631048CF002C055245394B10188272D
:101F400077FD8095982FA801970186D1860E971E60
:101F5000A81EB91E620C731C88EE93E0A0E0B0E0EE
:101F6000E80EF91E0A1F1B1F89819A81AB81BC8173
:101F7000E816F9060A071B0711F65520F1F4552457
:101F800008944108510824EF31E0429EC001439E6D
:101F9000900D529E900D11242091AE023091AF020F
:101FA00028173907ACF088EE93E0489E9001499ECF
:101FB000300D589E300D11240DC0930140E050E0CB
:101FC000C501B4018BD12093AE023093AF0202C0A1
:101FD00020E030E0C9012596E2E1E4C1A7E6B0E0E7
:101FE000E3EFFFE0C3C18C014B016A01A6962FAF5E
:101FF000A697DA018D919C9111970097E1F4F80171
:10200000808590E0880F991FFDD1D60111969C9391
:102010008E93009709F4E0C0FC0180E090E003C0DB
:10202000119211920196D80118962C91189730E0D0
:1020300082179307ACF3F40180819181009789F0B6
:10204000EE24FF245E010894A11CB11CB1E46B2EA8
:10205000712C6C0E7D1EA1E24A2E512C4C0E5D1E81
:1020600022C0D80118968C9190E0880F991FCAD190
:10207000F40191838083009709F4AEC0FC0180E0F5
:1020800090E0D80107C01E962D913C911F97219397
:102090003193019618962C91189730E08217930788
:1020A00094F38D01CDCFC801B501A6964FADA6978B
:1020B000E9DDD80118968C911897E82FF0E0A596E5
:1020C000FFAFEEAFA5971301F501A3965FAE4EAE3D
:1020D000A397930140E050E0A8965FAE4EAEA8975C
:1020E00037C0E114F10461F0A896AEADBFADA8977A
:1020F0006D917C911197808191816817790760F4C7
:1021000080819181A896AEADBFADA89711969C93A2
:102110008E93E114F10449F0D9016D917C911197EE
:10212000808191818617970728F480819181D90158
:102130008D939C934F5F5F4F2E5F3F4F3296A896D3
:102140008EAD9FADA8970296A8969FAF8EAFA89729
:10215000A596AEADBFADA5974A175B0714F20894DC
:10216000E11CF11CBAE0EB16F10409F09CCF80E011
:1021700090E02CC0F101419151911F01BC01660F0B
:10218000771FD601ED91FC911197E60FF71F208183
:1021900031812417350710F451834083A396EEADA7
:1021A000FFADA39741915191A396FFAFEEAFA397D7
:1021B000D401ED91FC911197E60FF71F2081318139
:1021C0004217530710F4518340830196F80120858C
:1021D00030E08217930774F2C959DF4FE2E1E2C0A1
:1021E0001F93CF93DF93EC01162F862F81508230FF
:1021F00050F4AE014E5F5F4FCE01BE0121E0EEDE36
:10220000123019F00BC0662349F4BE016C5F7F4F9A
:10221000AE014A5F5F4FCE0120E0E0DEDF91CF915B
:102220001F910895CF93DF93EC018A819B810097E2
:1022300009F080D18E819F81009709F07BD1888140
:102240009981009709F076D18C819D81009709F0E2
:1022500071D1DF91CF910895DB018F939F937CD053
:10226000BF91AF91A29F800D911DA39F900DB29F32
:10227000900D11240895991B79E004C0991F9617B9
:1022800008F0961B881F7A95C9F780950895AA1BB8
:10229000BB1B51E107C0AA1FBB1FA617B70710F051
:1022A000A61BB70B881F991F5A95A9F78095909583
:1022B000BC01CD01089597FB072E16F4009406D0BB
:1022C00077FD08D0E4DF07FC05D03EF490958195BA
:1022D0009F4F0895709561957F4F0895A1E21A2E42
:1022E000AA1BBB1BFD010DC0AA1FBB1FEE1FFF1FBA
:1022F000A217B307E407F50720F0A21BB30BE40B0A
:10230000F50B661F771F881F991F1A9469F7609550
:102310007095809590959B01AC01BD01CF0108950A
:10232000052E97FB16F400940FD057FD05D0D6DF8D
:1023300007FC02D046F408C0509540953095219591
:102340003F4F4F4F5F4F08959095809570956195E1
:102350007F4F8F4F9F4F089546D0A59F900DB49FFC
:10236000900DA49F800D911D112408952F923F92EE
:102370004F925F926F927F928F929F92AF92BF9295
:10238000CF92DF92EF92FF920F931F93CF93DF9341
:10239000CDB7DEB7CA1BDB0B0FB6F894DEBF0FBE9E
:1023A000CDBF09942A88398848885F846E847D84EB
:1023B0008C849B84AA84B984C884DF80EE80FD80ED
:1023C0000C811B81AA81B981CE0FD11D0FB6F89463
:1023D000DEBF0FBECDBFED010895EE0FFF1F0590CC
:1023E000F491E02D0994A29FB001B39FC001A39F77
:1023F000700D811D1124911DB29F700D811D11243E
:10240000911D0895CF93DF938230910510F482E0FF
:1024100090E0E0919003F091910320E030E0A0E0A3
:10242000B0E0309739F14081518148175907B8F031
:102430004817590771F482819381109729F01396F8
:102440009C938E9312972CC090939103809390034A
:1024500027C02115310531F04217530718F0A901A3
:10246000DB0101C0EF019A01BD01DF010280F381B0
:10247000E02DD7CF21153105F9F0281B390B243079
:10248000310580F48A819B816115710521F0FB0182
:102490009383828304C09093910380939003FE0101
:1024A000329644C0FE01E20FF31F819391932250B4
:1024B0003109398328833AC020918E0330918F03EC
:1024C000232B41F4209134013091350130938F0357
:1024D00020938E0320913201309133012115310573
:1024E00041F42DB73EB74091360150913701241B7E
:1024F000350BE0918E03F0918F03E217F307A0F400
:102500002E1B3F0B2817390778F0AC014E5F5F4F49
:102510002417350748F04E0F5F1F50938F034093E9
:102520008E038193919302C0E0E0F0E0CF01DF9150
:10253000CF910895CF93DF93009709F487C0FC01F2
:10254000329713821282C0919003D0919103209709
:1025500081F420813181280F391F80918E03909161
:102560008F038217930779F5F0938F03E0938E031F
:102570006DC0DE0120E030E0AE17BF0750F41296C8
:102580004D915C9113979D014115510509F1DA01B7
:10259000F3CFB383A28340815181840F951F8A17A3
:1025A0009B0771F48D919C911197840F951F029652
:1025B0009183808312968D919C911397938382834C
:1025C0002115310529F4F0939103E09390033EC067
:1025D000D9011396FC93EE9312974D915D91A40F40
:1025E000B51FEA17FB0779F480819181840F951F4D
:1025F0000296D90111969C938E93828193811396B2
:102600009C938E931297E0E0F0E08A819B81009783
:1026100019F0FE01EC01F9CFCE0102962881398133
:10262000820F931F20918E0330918F032817390753
:1026300069F4309729F4109291031092900302C02C
:1026400013821282D0938F03C0938E03DF91CF91B8
:10265000089510E0CCEAD0E003C0FE01C0DE22966F
:0A266000CE3AD107D1F7F894FFCF6E
:10266A0001010105000101881301040400D007F4E7
:10267A00010F009C01B501CF01EA010702260247BA
:10268A000269028E02B502DE020A0302080E0F1068
:10269A001112000092032000200000010203040529
:1026AA0006FF6D56005072657373204200476F2112
:1026BA00003E3E613332005265636F726465642185
:0A26CA000048657265207765000086
:00000001FF
