:100000003DC0000056C0000054C0000052C00000B7
:10001000F5C20000F3C20000F1C20000EFC2000010
:1000200048C0000046C0000044C00000E1C100001C
:1000300040C000003EC000003CC000003AC00000CC
:1000400038C0000036C0000034C0000032C00000DC
:1000500030C000002EC000002CC000002AC00000EC
:1000600028C0000026C0000024C0000022C00000FC
:1000700020C000001EC000001CC0000011241FBED4
:10008000CFEFD8E0DEBFCDBF11E0A0E0B1E0ECE9FA
:10009000F8E002C005900D92A431B107D9F711E044
:1000A000A4E1B1E001C01D92A633B107E1F708D089
:1000B000F3C3A6CF809112018F5F80931201089540
:1000C00082E163E144E125E17AD380E060E086D11A
:1000D0007FD39C01B901882777FD8095982F5FD148
:1000E00080E091E006D184E060E078D17AD39C0191
:1000F000B901882777FD8095982F51D180E091E054
:10010000F8D070D2009731F080E061E067D182E0F2
:1001100091E0EFD06DD2009731F080E061E05ED1E8
:100120008AE091E0E6D082E390E0A9D1CECF81E0F1
:1001300090E06F9364E06A95F1F76F910197C9F7CA
:1001400008950F931F93CF93DF9317B13D9828988D
:10015000299AC0E0D0E0EBDF2A9AE9DF06B12A98BD
:10016000E6DF2A9AE4DF2A98249605FF10C09E0154
:1001700040E050E08091180190911901A0911A017E
:10018000B0911B01281739074A075B0720F39E012E
:1001900040E050E08091180190911901A0911A015E
:1001A000B0911B01281739074A075B0728F082E343
:1001B00090E0A0E0B0E004C080E395E7A0E0B0E00C
:1001C0008093180190931901A0931A01B0931B0119
:1001D00017B9DF91CF911F910F91089528B190E049
:1001E0008F709070880F991F880F991F237C282B80
:1001F00028B92A9A9CDF2A989ACFA2E0B0E0E2E0E0
:10020000F1E020C3182F4A83698357D09ADFF7B0F3
:1002100008B1299869814A81662311F0289A01C0A2
:10022000289887B18C6387B9413021F0812F82955E
:100230008F70D4DF812F8F70D1DFF7B808B9229685
:10024000E5E01CC360E042E0D8CF61E042E0D5CFFA
:1002500060E041E0D2CF3D98459A80E395E7A0E089
:10026000B0E08093180190931901A0931A01B09304
:100270001B01209A219A229A8EE190E000D183E01E
:10028000E7DF86E090E0FBD083E0E2DF82E090E011
:10029000F6D083E0DDDF82E090E0F1D082E0D8DFCD
:1002A00082E090E0ECD088E2CDDF88E0CBDF81E037
:1002B000C9DF86E0C7DF8CE0C5CF80911C018823B1
:1002C00021F481E080931C01C6CF0895EF92FF9244
:1002D000CF93DF93E82EE7017E01F92EE70101C0FD
:1002E000B4DF89918823E1F7DF91CF91FF90EF9000
:1002F0000895ECCF0895AAE0B0E0E0E8F1E09DC2F7
:100300009B01AC011AE06AE0C62ED12CE12CF12C45
:100310005E010894A11CB11C022FCA01B901A701FA
:10032000960161D21150F501E10FF11D005D922F90
:10033000990F892F880F880F890F081B00832115BB
:1003400031054105510541F707C0F601E10FF11DE7
:1003500080817BDF1F5F04C06E010894C11CD11C2B
:100360001A3098F32A96EAE084C2EF92FF920F9334
:100370001F937B018C0197FF0AC010950095F094A4
:10038000E094E11CF11C011D111D8DE25EDFC8012E
:10039000B701B1DF1F910F91FF90EF900895E5CF66
:1003A0000895A5E0B0E0E6EDF1E04EC2182F80E838
:1003B000898380EC8A8384E98B8384ED8C83FE01BE
:1003C000E60FF11D8181810F6D833CDF10931701D2
:1003D0006D81609316012596E3E052C2E2CF089545
:1003E0006F9364E06A95F1F76F910197C9F70895EB
:1003F0002F928F939F932FB680911E0190911F0192
:10040000019680931E0190931F0190E0809120013E
:10041000891F80932001909126019C5F9093260173
:100420008091250180519742C0F0909326018093DE
:100430002501809121019091220101968093210153
:100440009093220190E080912301891F80932301E2
:1004500080912401891F809324012FBE9F918F9149
:100460002F901895CF93DF93EC0104C088EE93E0B2
:10047000B7DF21972097D1F7DF91CF910895F2CF81
:100480000895FC0111821082138212821582148257
:100490001682683068F489E290E0918380838BE271
:1004A00090E0938382838AE290E09583848323C0E3
:1004B000603180F483E290E09183808385E290E074
:1004C0009383828384E290E09583848370E0685014
:1004D000704011C06831C0F486E290E0918380835F
:1004E00088E290E09383828387E290E0958384831F
:1004F00070E06051704081E090E002C0880F991F69
:100500006A95E2F7868308956032C0F480E290E055
:100510009183808382E290E09383828381E290E002
:10052000958384832FE130E0261B310981E090E040
:1005300002C0880F991F2A95E2F786830895A7E0E5
:10054000B0E0E4EAF2E081C1682FCE01019699DFC4
:1005500089819A818032910531F480916B009F816D
:10056000892B80936B0089819A818332910531F4C4
:1005700080916C009F81892B80936C0089819A8186
:100580008632910531F480916D009F81892B809393
:100590006D0089819A818932910531F480917300CF
:1005A0009F81892B80937300ED81FE8190818F81E3
:1005B0008095892380838FEF809368002796E2E0FF
:1005C00060C1A7E0B0E0E6EEF2E03FC1682FCE01E7
:1005D000019657DFE981FA8190818F8189232796DF
:1005E000E2E04FC1809129011092290190E0089525
:1005F000809128011092280190E008951F920F9297
:100600000FB60F921124FF920F931F932F933F93D6
:100610004F935F936F937F938F939F93AF93BF930A
:10062000EF93FF9380912E01CCDFF82E8091300163
:10063000C8DF182F80912F01C4DF082F809131016E
:10064000C0DF4091330160913201509135019091AA
:100650003401F41651F020912C0130912D012F5FBF
:100660003F4F30932D0120932C01061751F020911C
:100670002C0130912D012150304030932D012093D9
:100680002C01151751F020912A0130912B012F5F79
:100690003F4F30932B0120932A01891751F020916D
:1006A0002A0130912B012150304030932B012093AF
:1006B0002A01EF2DF0E0772767FD7095E617F70721
:1006C00059F0602F70E0552747FD50956417750766
:1006D00019F021E020932901412F50E0292F3327E1
:1006E00027FD30954217530769F0482F50E02091BD
:1006F0003501332727FD30954217530719F091E054
:1007000090932801F0923201009333011093340149
:1007100080933501FF91EF91BF91AF919F918F91A0
:100720007F916F915F914F913F912F911F910F9109
:10073000FF900F900FBE0F901F901895A3E0B0E0B0
:10074000E3EAF3E082C080932E0160932F0140938F
:10075000300120933101F8942B834A836983EFDEC3
:100760006981862FECDE4A81842FE9DE2B81822F7E
:10077000E6DE10922D0110922C0110922B011092A6
:100780002A01109229011092280180912E0119DF6F
:100790008093320180912F0114DF80933301809187
:1007A00030010FDF80933401809131010ADF8093A3
:1007B00035018FEF8BBB78942396E2E062C0BECF09
:1007C0000895F89480912C0190912D0178940895CA
:1007D000F8CF0895F89480912A0190912B01789494
:1007E0000895F8CF0895A1E21A2EAA1BBB1BFD01A4
:1007F0000DC0AA1FBB1FEE1FFF1FA217B307E40700
:10080000F50720F0A21BB30BE40BF50B661F771F57
:10081000881F991F1A9469F7609570958095909537
:100820009B01AC01BD01CF0108952F923F924F92E1
:100830005F926F927F928F929F92AF92BF92CF9270
:10084000DF92EF92FF920F931F93CF93DF93CDB779
:10085000DEB7CA1BDB0B0FB6F894DEBF0FBECDBFF1
:1008600009942A88398848885F846E847D848C84C2
:100870009B84AA84B984C884DF80EE80FD800C81CB
:100880001B81AA81B981CE0FD11D0FB6F894DEBFAE
:0C0890000FBECDBFED010895F894FFCF1E
:10089C0020004572726F722031004572726F7220A7
:0408AC003200010015
:00000001FF
