:1000000056C000007BC0000079C0000077C000002F
:1000100075C0000073C0000071C000006FC0000018
:100020006DC000000C94680A69C0000067C0000041
:1000300065C00000DDC6000061C000005FC00000B8
:100040005DC000005BC0000059C0000057C0000048
:1000500055C0000053C0000051C000004FC0000058
:100060004DC000004BC000004C3136206364656712
:1000700072656734003E6733323E3E63333200734D
:100080006F6C766572004D617A650033F720526FB0
:10009000626F740020506F6C6F6C75000000000080
:1000A0000000001F1F1F1F1F1F1F3A0B3B0B1124B7
:1000B0001FBECFEFD4E0DEBFCDBF11E0A0E0B1E0C6
:1000C000E6E8F4E202C005900D92AE35B107D9F72B
:1000D00022E0AEE5B1E001C01D92AA33B207E1F71C
:1000E00010E0CCEAD0E004C02297FE010E94FD108F
:1000F000CA3AD107C9F7D9D20C94371281CF80916F
:1001000000018F5F809300010895AAE0B0E0EBE862
:10011000F0E00C94D21080ED97E00E94380B9DD057
:1001200084E990E00E94B30861E080E00E94290920
:100130008BE890E00E94B30885E790E0D4D688EE83
:1001400093E00E94AF0AEBD786E890E00E94B308E4
:1001500061E080E00E9429098FE790E00E94B308E7
:1001600088EE93E00E94AF0A80E10E945E0A81114E
:1001700017C081D38C01D3D7B801882777FD80952C
:10018000982F0E940A0980E491E0DED761E080E0C8
:100190000E94290983E491E0D7D784E690E0E2CF7A
:1001A00080E10E944E0A88EE93E00E94AF0A0CEEB6
:1001B0001FEF0832110528F068ED7FEF88E290E02C
:1001C00004C068E270E088ED9FEF0E94230A81E09E
:1001D0000E94FE0A84E190E00E94AF0A0F5F1F4F69
:1001E0000C33110531F760E070E080E090E00E9490
:1001F000230A80E10E945E0A811118C061E0CE01ED
:1002000001960E94020B8C018AD7B80180E090E031
:100210000E940A0961E080E00E942909CE0101964E
:1002200039D084E690E00E94AF0AE3CF80E10E94DB
:100230004E0A75D78BE491E087D788E690E053D6D5
:1002400037D68111FDCF2A96E4E00C94EE10809110
:1002500001018F5F80930101089560E08CE990E0D7
:10026000F3D661E08DE990E0EFD662E08EE990E0B0
:10027000EBD663E08FE990E0E7D664E080EA90E0B7
:10028000E3D665E081EA90E0DFD666E082EA90E0BE
:10029000DBD645C7AAE0B0E0E0E5F1E00C94CE1073
:1002A0008C01D12C8AE0C82E95E6E92EF12CE6E3EC
:1002B000F1E0DE0111968C2D01900D928A95E1F707
:1002C000F801819191918F01B7010E94551081E051
:1002D00090E08C0F9D1F680F791FFB018081B6D6BF
:1002E000D394F5E0DF12E3CF2A96E8E00C94EA100D
:1002F000809102018F5F809302010895E0915E0179
:10030000F0E0E15AFE4F10820AD78FE591E01CD74A
:1003100080915E01893030F061E080E09AD787E615
:1003200091E012C70895811106C0611106C04423EF
:1003300031F082E508958CE4089583E5089582E420
:100340000895CF93C0915E01C33008F449C02C2FAB
:1003500030E0215A3E4FF90132978081823409F012
:100360003FC041E050E080E090E0B901FB01E41BB8
:10037000F50BE081EC3451F0E23529F0E23441F440
:100380008C549F4F05C0865A9F4F02C0825F9E4F7C
:100390004F5F5F4F4430510549F768E671E00E94B6
:1003A00069108A35910589F034F4892BB1F4F9018B
:1003B000339783E511C0843B910559F08E3091400D
:1003C00061F4F90133978CE407C0F901339782E5B2
:1003D00003C0F901339782E48083C250C0935E0169
:1003E000CF910895ABE0B0E0E8EFF1E00C94CE10CF
:1003F000BFD062E370E082E390E00E94230A82E3D0
:1004000090E00E94AF0A61E0CE0101960E94020BCB
:1004100011E029813A812536310508F410E041E0E8
:1004200029853A852536310508F440E068E270E018
:1004300088E290E04B870E94230A88EC90E00E94BB
:10044000AF0A61E0CE0101960E94020B2B813C8134
:100450004B85293C310560F42D813E81293C3105D5
:10046000A0F42F813885293C310578F460E00EC076
:100470002935324050F02D813E812935324028F017
:100480002F8138852935324090F461E0812F4BDF90
:10049000182FEFD080915E01E82FF0E0E15AFE4F77
:1004A00010838F5F80935E014CDF28DFA1CF80ED4A
:1004B000C82E87E0D82EE12CF12C60E070E080E0BF
:1004C00090E0C1D78FE491E000D580E1F7D78111AA
:1004D0001CC00E94E60AA70196010E947C10683E9B
:1004E00073408105910558F41AD685E591E02CD624
:1004F00061E080E0AED683E491E026D601C0FEDE66
:100500008EE190E00E94AF0AE0CF80E1D7D7811161
:10051000FCCF88EE93E00E94AF0A0FE511E08091D6
:100520005E0190E098012F55314028173907C4F437
:100530001FD062E370E082E390E085D782E390E031
:100540000E94AF0A68E270E088E290E07CD788EC15
:1005500090E00E94AF0AF80181918F018AD0DFCF2D
:1005600007D0ABCF809103018F5F80930301089583
:10057000AAE0B0E0EEEBF2E00C94C410C12CD12C58
:100580007601A12CB12C50E1452E57E2552E612C5D
:10059000712C64E1262E312C7CE3872E912C61E0B6
:1005A000CE0101960E94020B8C01005D1740C8012C
:1005B000AA2797FDA095BA2FC80ED91EEA1EFB1ECA
:1005C000C701B601A30192010E949E10B8016A19E9
:1005D0007B09CB01880F991F860F971F97FD019606
:1005E000FC01F595E795E20FF31FC801B1010E94E8
:1005F0006910E60FF71FED33F10574F4E43C8FEF5B
:10060000F8071CF0F7FD03C009C0E4ECFFEF6CE352
:1006100070E0CF01CC9607C0ECE3F0E0B4016E1BB4
:100620007F0B8CE390E00FD78B819C818436910502
:1006300050F48D819E818436910528F48F819885B0
:100640008436910560F089819A81893C910538F45E
:1006500089859A85893C910510F45801A0CF2A9686
:10066000E2E10C94E010809104018F5F809304011B
:1006700008958C3461F0823579F08234A9F460EB0E
:100680007FEF80E590E0DFD680E991E00CC060E587
:1006900070E080EB9FEF04C060EB7FEF80E590E0BF
:1006A000D2D688EC90E05BC708952FDD9BDEFFCFAC
:1006B000882321F480917C008F7D03C080917C0091
:1006C000806280937C00089580917C0090E025E01A
:1006D000959587952A95E1F78170089580917A0024
:1006E00090E036E0959587953A95E1F78170089509
:1006F000EBDF882321F02091790030E004C02091C5
:10070000780030917900C90108958032B0F497E8FB
:1007100090937A0090917C00292F2064662311F039
:10072000906C02C0922F9F77907E982B90937C00C4
:1007300080917A00806480937A000895A0E0B0E010
:10074000E4EAF3E00C94CE106B0160E0DEDFC6DF7C
:100750008823E9F7E601EE24FF24870180917A00DF
:10076000806480937A00BADF8823E9F7C1DFA0E0D4
:10077000B0E0E80EF91E0A1F1B1F219779F7C6018A
:100780009695879520E4C216D10440F48E0D9F1DE6
:100790006C2D70E00E945510CB010DC0BC0180E0B3
:1007A00090E06E0D7F1D801F911F960140E050E08C
:1007B0000E947C10C901CDB7DEB7E8E00C94EA10C6
:1007C000A3E0B0E0E6EEF3E00C94D310BC0180E0CF
:1007D00090E0209105013091060140E050E00E9438
:1007E0003A10182F69837A839B836EDF69817A813F
:1007F0009B81882371F09B01412F592FCA01B901B8
:1008000061587F4F8F4F9F4F2FEF30E040E050E017
:100810000DC09B01412F592FCA01B90161507E4F74
:100820008F4F9F4F2FEF33E040E050E00E947C104D
:10083000C9012396E3E00C94EF1080DFC1CF1F9332
:10084000CF93DF9341DF182F80E032DF86E06AE04C
:1008500070E0F3DFEC01812F2BDF9E01220F331FAD
:100860002C0F3D1F2F5F3F4F36952795C901DF9114
:10087000CF911F910895E3CF08959091C801E09121
:10088000C401F091C501992311F0849101C08081C8
:10089000282F21542A3110F4805E0895803271F49B
:1008A0002091C4013091C501A9014F5F5F4F509362
:1008B000C5014093C4012115310509F70895EF9250
:1008C000FF92CF93DF93D9DFC0E0D0E01AC09E0142
:1008D000220F331F93E0CC0FDD1F9A95E1F7C20F73
:1008E000D31F992787FD9095C80FD91FE097809156
:1008F000C4019091C50101969093C5018093C401F4
:10090000BCDF982F90539A3010F3CE01DF91CF9136
:10091000FF90EF90089510926F0083E28093800023
:1009200081E1809381001092820080E197E29093B0
:1009300089008093880010928B0010928A00229A7E
:10094000789408958091C301882321F481E08093F5
:10095000C301E1CF0895A0E0B0E0E1EBF4E00C9436
:10096000CA108C015B01E42EEDDF1092070117FF26
:1009700004C01F77AAE0FA2E02C0FF24F394C090AF
:100980008100DD2428EFC222DD2488EC3F2D389F32
:10099000C001112480179107D8F4E80167E2013102
:1009A000160710F0C0E1D7E2BE017695679580E0AA
:1009B00090E06058794687469F4F9E0140E050E0A6
:1009C0000E947C10890181E090E0C82AD92A2CC0BD
:1009D00098E2F99E902D112480E0892EE4014E01C9
:1009E000982EE4018016910608F4E801BE01769580
:1009F00067959E0140E050E08F2D8A3039F480E009
:100A000090E0605E734481449F4F06C080E090E0B8
:100A100060537D4E8C4E9F4F0E947C10890152E0A6
:100A2000852E912CC828D9282F2D2A3039F4CE01B3
:100A300005966AE070E00E945510EB0133E0C83E75
:100A4000D30779F0BE0180E090E0950140E050E0EE
:100A50000E943A1028EE33E040E050E00E949E10E1
:100A600001C0950110926F00C0928100109389001F
:100A70000093880040918800509189006E2D60316C
:100A800008F06FE080E190E0861B9109BA0102C096
:100A9000769567958A95E2F770938B0060938A004C
:100AA0003093CB012093CA0186B38FEF86BB81E0E0
:100AB00080936F00CDB7DEB7ECE00C94E6109B019D
:100AC0008F3F11F0442329F488EE93E0B90140E010
:100AD00049C0813130F0582F5051503618F05FE541
:100AE00001C050E0852F6CE00E944910A82FB0E0B3
:100AF000E4EFFFEFAE9FB001AF9F700DBE9F700D92
:100B00001124650F711D6C30710540F4FB01EE0F6F
:100B1000FF1FEF5EFE4F6081718102C060E070E0F8
:100B2000873081F0082E02C0660F771F0A94E2F723
:100B3000823028F0CB0105966AE070E00CC060506E
:100B400070480BC0CB01B6E0880F991FBA95E1F74A
:100B5000029665E070E00E945510403108F04FE0C9
:100B6000CB01B901F8CEA0E0B0E0E9EBF5E00C94E0
:100B7000C910B09008018091C601882359F0609196
:100B8000C701662339F08FEF70E040E098DF1092E4
:100B9000C70129C1C0ECDDE5AA24A39414E0712E9D
:100BA00000ED17E0B4E0EB2EF12CA4EFCA2EA1E08B
:100BB000DA2EFFE08F2E912C60DE2091C40130915F
:100BC000C5012F5F3F4F3093C5012093C401863686
:100BD000F1F18736CCF4823609F4AAC083367CF46E
:100BE0008E3349F18F333CF4813209F482C08C3367
:100BF00009F096C022C0813609F092C096C08436B2
:100C000001F185360CF51BC08F3609F445C08037DD
:100C100044F48C3611F18D3659F1873609F080C0D5
:100C200019C0843709F441C0863709F45CC08237A3
:100C300009F076C036C0B394BFCFBA94BDCFEE24CE
:100C400032C0EE2482E076C0EE2484E073C0EE244D
:100C500085E070C0EE2487E06DC031DEBC0190936A
:100C60000A018093090180910B0190910C0134C01D
:100C700004DE8C3619F41092C60104C0A092C6019D
:100C80001092C7018091C4019091C5010196909383
:100C9000C5018093C40190CF12DEB82E8093080165
:100CA0008BCFEE24E39480E045C009DEBC01CE0189
:100CB0000E945510CB01880F991F53E0660F771FD4
:100CC0005A95E1F7860F971F90930C0180930B01C3
:100CD0006091090170910A010E94551070930E01F4
:100CE00060930D0169CFEBDD9093100180930F01AC
:100CF00063CF7092080110930C0100930B01F092E6
:100D00000A01E0920901D0920E01C0920D01909269
:100D1000100180920F011092C60144E0B42E4CCF16
:100D20001092C5011092C4015EC0EE2489E002C099
:100D3000EE248BE09CE0B99EB02C1124B80E9DDD12
:100D40008B3211F08332B1F48091C4019091C501CE
:100D500001969093C5018093C401B394F0CF809124
:100D6000C4019091C50101969093C5018093C4017F
:100D7000BA9483DD8D3299F3C0910D01D0910E01AB
:100D80008153883050F4C0910B01D0910C0197DD54
:100D9000BC01CE010E945510EB018E010BC0809169
:100DA000C4019091C50101969093C5018093C4013F
:100DB000C00FD11F1695079560DD8E3281F38091AB
:100DC000C601882339F0CE01969587958093C70197
:100DD000C81BD109EE2011F0BB24BA948B2DBE01A3
:100DE00040910F016CDECDB7DEB7EDE00C94E5105D
:100DF0001F920F920FB60F9211242F933F934F9390
:100E00005F936F937F938F939F93AF93BF93EF9372
:100E1000FF938091CA019091CB019C0121503040F9
:100E20003093CB012093CA01009709F510926F000F
:100E3000789480918100887F81608093810080E137
:100E400097E2909389008093880010928B00109213
:100E50008A0081E0809307018091C4019091C501CF
:100E6000009729F08091C901882309F47CDEFF9165
:100E7000EF91BF91AF919F918F917F916F915F9112
:100E80004F913F912F910F900FBE0F901F9018958B
:100E900080910701882351F081E02091C4013091B5
:100EA000C5012115310519F480E0089581E0089508
:100EB000EFCF089510926F009093C5018093C40105
:100EC0001092C8011092C7014ECEF4CF089510922F
:100ED0006F009093C5018093C40181E08093C801A5
:100EE0001092C70140CEF3CF089581E090E06F9358
:100EF00064E06A95F1F76F910197C9F708950F9330
:100F00001F93CF93DF931AB157985A98289AC0E04D
:100F1000D0E0EBDF5C9AE9DF09B15C98E6DF5C9A30
:100F2000E4DF5C9807FF11C024969E0140E050E08A
:100F30008091D0019091D101A091D201B091D301C3
:100F4000281739074A075B0720F31AB9DF91CF91B9
:100F50001F910F91089565B190E0AC014170507000
:100F6000440F551F9C012670307053E0220F331F31
:100F70005A95E1F7242B6D7C262B25B92BB188706F
:100F8000907034E0880F991F3A95E1F72F77282B5E
:100F90002BB95C9AAADF5C98A8CFA2E0B0E0E3EDA1
:100FA000F7E00C94CF10182F4A83698384D0A7DF11
:100FB000F4B005B1DAB0EBB0289869814A816623B4
:100FC00011F05A9A01C05A9884B1826384B9579A31
:100FD000413021F0812F82958F70BDDF812F8F707E
:100FE000BADFDAB8EBB8F4B805B92296E7E00C94AA
:100FF000EB1060E042E0D1CF61E042E0CECFEF9273
:10100000FF921F93DF93CF930F92CDB7DEB7660F9A
:10101000660F660F482F592F7A0110E0812F860F37
:1010200080646983E6DFF7018491E6DF1F5F08943F
:10103000E11CF11C6981183089F70F90CF91DF9185
:101040001F91FF90EF900895DACF0895D5CF0895BE
:1010500060E041E0A2CF80E197E2A0E0B0E08093C1
:10106000D0019093D101A093D201B093D301529AB1
:10107000209A549A8EE190E072D283E0E9DF86E014
:1010800090E06DD283E0E4DF82E090E068D283E01C
:10109000DFDF82E090E063D282E0DADF82E090E09E
:1010A0005ED288E2A6DF88E0A4DF81E0A2DF86E0EE
:1010B000A0DF8CE09ECF8091D401882321F481E0D1
:1010C0008093D401C8CF089581E093DF8091CC0153
:1010D0009091CD01009711F1A0E0B0E208C0E0913D
:1010E000CC01F091CD01E20FF31FB083AF5F2A2F47
:1010F00030E08091290190E0019760912A0170E031
:10110000869FA001879F500D969F500D1124241794
:1011100035072CF31092CF011092CE010895D4CF51
:101120000895EF92FF92CF93DF93E82EE7017E01BF
:10113000F92EE70101C060DF89918823E1F7DF9193
:10114000CF91FF90EF900895ECCF0895CF93DF9368
:10115000EC0102C051DF2196FE0184918823D1F772
:10116000DF91CF910895F2CF0895AAE0B0E0EBEBC4
:10117000F8E00C94CC109B01AC011AE0EAE0CE2E12
:10118000D12CE12CF12C5E010894A11CB11C022F82
:10119000CA01B901A7019601AFD71150F501E10FBE
:1011A000F11D005D922F990F892F880F880F890FED
:1011B000081B0083211531054105510541F707C082
:1011C000F601E10FF11D808117DF1F5F04C06E0182
:1011D0000894C11CD11C1A3098F32A96EAE0F8C78B
:1011E000EF92FF920F931F937B018C0197FF0AC030
:1011F00010950095F094E094E11CF11C011D111D67
:101200008DE2FADEC801B701B0DF1F910F91FF90A8
:10121000EF900895E5CF0895A5E0B0E0E1E1F9E0B1
:10122000C2C7182F80E8898380EC8A8384E98B8386
:1012300084ED8C83FE01E60FF11D8181810F6D83AA
:10124000D8DE1093CF016D816093CE012596E3E047
:10125000C6C7E2CF0895FC01118210821382128268
:10126000158214821682683068F489E290E09183D6
:1012700080838BE290E0938382838AE290E095837F
:10128000848311C06E30C0F483E290E09183808348
:1012900085E290E09383828384E290E09583848367
:1012A00070E06850704081E090E002C0880F991FA4
:1012B0006A95E2F7868308956531B8F486E290E096
:1012C0009183808388E290E09383828387E290E039
:1012D0009583848370E06E50704081E090E002C09E
:1012E000880F991F6A95E2F786830895FC01A4810F
:1012F000B5818681662321F09C91982B9C9308955B
:101300009C91809589238C930895FC016F3F31F463
:10131000A281B3818C91968189270CC0A281B3816F
:101320008681662321F09C91982B9C9308959C9133
:10133000809589238C930895A7E0B0E0E1EAF9E075
:1013400030C7282FF62E8E010F5F1F4FC801622F66
:1013500082DFC8016F2DD9DFC80161E0C7DF2796A2
:10136000E5E03BC7E0EBF0E083EF8083808184BD64
:10137000E1EBF0E082E08083808185BDE4EBF0E08A
:1013800010828081E3EBF0E08083808188BD88B5A6
:1013900087BD86E060E0D0DF85E060E0CDDF8BE0F8
:1013A00060E0CADF83E060E0C7CF8091D501882389
:1013B00021F481E08093D501D5CF0895CF93DF93B9
:1013C000EC01F3DFD7FF05C0D095C195DF4F81E079
:1013D00001C080E0CF3FD10519F014F0CFEFD0E08D
:1013E000882319F018BCC7BD02C0C8BD17BCDF9167
:1013F000CF910895CF93DF93EC01D7DFD7FF05C0DE
:10140000D095C195DF4F81E001C080E0CF3FD1058D
:1014100019F014F0CFEFD0E0882329F01092B40037
:10142000C093B30004C0C093B4001092B300DF9126
:10143000CF910895CF93DF93EB01C0DFCE01DADFC8
:10144000DF91CF910895F6CF089584B18D7C84B952
:1014500085B1826385B985E090E06F9364E06A9519
:10146000F1F76F910197C9F708958091D60188230C
:1014700021F481E08093D601E8CF08951F93182FBF
:10148000F4DF83B18123E9F38AE090E068D083B18F
:101490008123B9F383B181231F910895EFCF08957C
:1014A000A1E0B0E0E5E5FAE07FC68983DEDF93B135
:1014B0009095898189232196E2E092C6F1CF089523
:1014C0006F9364E06A95F1F76F910197C9F70895FA
:1014D0002F928F939F932FB68091E4019091E50115
:1014E00001968093E4019093E50190E08091E601FC
:1014F000891F8093E6019091EC019C5F9093EC0131
:101500008091EB0180519742C0F09093EC01809361
:10151000EB018091E7019091E80101968093E7014A
:101520009093E80190E08091E901891F8093E9019F
:101530008091EA01891F8093EA012FBE9F918F91CC
:101540002F901895CF93DF93EC0104C088EE93E0C1
:10155000B7DF21972097D1F7DF91CF910895F2CF90
:101560000895E0E7F0E080818E7F8083A0EBB0E01B
:101570008C9183608C93A1EBB0E08C91807F8C93F5
:101580008C9182608C93B89A8081816080837894FA
:1015900008958091ED01882321F481E08093ED018D
:1015A000E0CF0895F6DFE0E7F0E080818E7F808372
:1015B0002091E7013091E8014091E9015091EA0161
:1015C000808181608083B901CA010895EBCF0895BD
:1015D000E0DFE0E7F0E080818E7F80831092E7011A
:1015E0001092E8011092E9011092EA011092EC01C8
:1015F0001092EB018081816080830895682F8EEEC8
:1016000091E0FCC49C01462F8EEE91E0B90120E0F0
:101610005EC30F93DF93CF9300D000D00F92CDB76E
:10162000DEB79C01962FDE011196EBE2F1E085E03A
:1016300001900D928150E1F7BE016F5F7F4F9923BA
:1016400029F08EEE91E045E00FEF04C08EEE91E0C0
:1016500045E003E16CD08EEE91E042D0B9DF0F900F
:101660000F900F900F900F90CF91DF910F910895F1
:1016700060E0CFCF08958EEE91E0E2C46F9364E016
:101680006A95F1F76F910197C9F70895A7E0B0E067
:10169000EBE4FBE087C58C01FC0111821082138210
:1016A00012821582148217821682613118F080E14D
:1016B000808702C0FC016087F801208BCE01019673
:1016C000642FC9DD8F81F80181878B819C8193878D
:1016D00082878D819E81958784872796E4E07EC5E9
:1016E000FC01A485B585109771F08C919185892BAB
:1016F0008C93A285B3859C918185809589238C9359
:1017000088EC90E0BBCF0895FC01A485B5851097C7
:1017100069F08C919185892B8C93A285B3858C91EE
:101720009185892B8C9388EC90E0A8CF0895A7E051
:10173000B0E0ECE9FBE028C57C011B01642F390116
:10174000402F20E0A3DF97012F5B3F4FF90110826C
:10175000D701AE5BBF4F1C92C7018D5B9F4FFC0151
:101760001082F7017786668666242E010894411C54
:10177000511C6C015D01490128C0062D10E0F101EA
:10178000E00FF11FC201608166DD2F81F701E00FDC
:10179000F11F218B89819A81F801EE0FFF1FEE0D59
:1017A000FF1D92A381A38332910511F4F40109C0B6
:1017B0008632910511F4F50104C08932910521F4B6
:1017C000F6018081822B80836394F70180856816FF
:1017D000A0F22796E2E1F4C4A0E0B0E0E1EFFBE084
:1017E000D8C4EC015B01FC01EF5BFF4F9080FC0172
:1017F000EE5BFF4F8080FC01ED5BFF4F708080E06F
:1018000009C0E82FF0E0EE0FFF1FEA0DFB1D11826B
:1018100010828F5F98858917A0F384B121E4E22EAE
:10182000F12CEC0EFD1ED7019C91892B84B987B158
:101830008E010E5B1F4FF8019081892B87B98AB109
:1018400093E4C92ED12CCC0EDD1ED6019C91892BA0
:101850008AB985B1F7019081892B85B988B1D80102
:101860009C91892B88B98BB1F6019081892B8BB91A
:101870008AE090E003DF94B1D7018C9180958923B1
:1018800084B997B1F80180818095892387B99AB18D
:10189000D6018C91809589238AB995B1F701808111
:1018A0008095892385B998B1D8018C918095892339
:1018B00088B99BB1F6018081809589238BB9C0904E
:1018C000B000E090B1008091B00083608093B000E0
:1018D00082E08093B1000091B20080E090E039C0D6
:1018E0002091B200201B820F911D020FF3B0F9145A
:1018F00009F04DC096B0981409F049C029B12715D8
:1019000009F045C024C0212F30E0A901440F551F24
:10191000F501E40FF51F608171816115710599F47E
:101920004C0F5D1FDA0191964D915C919297DA010F
:101930004C912C0F3D1FD90151962C915197422368
:1019400011F4918380831F5F28851217E0F2892CA0
:101950009F2C2E853F858217930710F2C092B0000E
:10196000E092B10020E00FC0E22FF0E0EE0FFF1F89
:10197000EA0DFB1D80819181009721F48E859F8562
:10198000918380832F5F8885281770F305C0F3B09B
:1019900096B079B010E0D8CFCDB7DEB7EDE015C482
:1019A000EF92FF920F931F93CF93DF93FC019B0164
:1019B00000917C0010917A00E7B0F8B080917A0035
:1019C00086FDFCCF80E00AC0A82FB0E0AA0FBB1FA5
:1019D000A20FB31F11961C921E928F5F90858917DC
:1019E00098F397B182A18095892387B998B182A194
:1019F0008095892388B987E880937A0070E029C0B0
:101A0000DF01A60FB11D51968C9151978064809390
:101A10007C0080917A00806480937A0080917A00C3
:101A200086FDFCCFA62FB0E0AA0FBB1FA20FB31FED
:101A300040917800509179008D919C911197840F7D
:101A4000951F11969C938E936F5F80856817C0F2E7
:101A50007F5F81A1781710F460E0F7CF40E013C0FA
:101A6000C42FD0E0CC0FDD1FC20FD31F61A170E0E7
:101A7000CB0195958795A881B9818A0F9B1F15D3B6
:101A8000798368834F5F8085481750F300937C000B
:101A900010937A00F8B8E7B8CDB7DEB7E6E09CC39C
:101AA000A0E2B0E0E5E5FDE07AC38C017B01D42E35
:101AB000842F8150823010F4C80126DED801509660
:101AC0008C915097882371F4C801B70185DEC80155
:101AD00007DEBD2DB230B9F5C801BE016F5F7F4F83
:101AE0007BDE0DC0C801B7015BDFC801F9DDED2D5C
:101AF000E23049F5C801BE016F5F7F4F51DF60E002
:101B0000AE014F5F5F4F1BC0862F90E0880F991F7B
:101B1000F701E80FF91F840F951FD8011E962D912C
:101B20003C911F97DC018D919C911197281B390BDB
:101B300080819181820F931F918380836F5FF80171
:101B40008085681708F3A096E7E045C38F929F92BF
:101B5000AF92BF92CF92DF92FF920F931F93CF93DA
:101B6000DF93EC01C62E072FF42E423011F0FF2038
:101B700051F48C819D81009709F49DC08E819F81D5
:101B8000009709F498C08F2D8150823050F48881DD
:101B90009981009709F48FC08A819B81009709F48D
:101BA0008AC0CE016C2D702F4F2D7ADFAC2CB02E59
:101BB00000E010E08824992478C08F2D813059F4FA
:101BC000EA81FB81E00FF11FC080D180E881F981BB
:101BD000E00FF11F0DC08C819D81FF2061F4EE812B
:101BE000FF81E00FF11FC080D180800F911FFC01A9
:101BF000408151812BC0800F911FFC018081918118
:101C0000E881F981E00FF11F40815181CE84DF84AA
:101C10008417950710F4A60104C04C0D5D1D481BE8
:101C2000590BEE81FF81E00FF11F80819181EA81E4
:101C3000FB81E00FF11F20813181CE84DF84821788
:101C4000930720F0C20ED31EC81AD90AC41AD50AA7
:101C5000C1F0F5016081718180E090E09A0140E07F
:101C600050E0621B730B840B950B28EE33E040E0D1
:101C700050E000D2960140E050E060D237FD0AC04B
:101C800002C020E030E0F3E0293E3F072CF028EED0
:101C900033E002C020E030E0F501219331935F0191
:101CA0000894811C911C0E5F1F4F888590E0881658
:101CB00099060CF482CFDF91CF911F910F91FF9085
:101CC000DF90CF90BF90AF909F908F900895A5E048
:101CD000B0E0ECE6FEE058C24C01C62EE72E2D83A4
:101CE00035DFD40118964C901897DE2C642D70E0E7
:101CF00080E090E028EE33E040E050E0BBD1698323
:101D00007A838B839C83EE24FF24870166247724C7
:101D1000882499245401552435C0F601308121814D
:101D200042E0242E312CC20CD31CC901492F582F5C
:101D30001A012D81222329F088EE93E0821993095C
:101D40001C0199EC291631042CF4A3E32A16310462
:101D50008CF002C055245394B101882777FD8095FB
:101D6000982FA801970186D1860E971EA81EB91E2E
:101D7000620C731C88EE93E0A0E0B0E0E80EF91E60
:101D80000A1F1B1F89819A81AB81BC81E816F90665
:101D90000A071B0711F65520F1F455240894410851
:101DA000510824EF31E0429EC001439E900D529EA7
:101DB000900D1124209132023091330228173907F7
:101DC000ACF088EE93E0489E9001499E300D589EFD
:101DD000300D11240DC0930140E050E0C501B40165
:101DE0008BD1209332023093330202C020E030E0E6
:101DF000C9012596E2E1E4C1A7E6B0E0E1E0FFE039
:101E0000C3C18C014B016A01A6962FAFA697DA01D8
:101E10008D919C9111970097E1F4F801808590E0F5
:101E2000880F991FFDD1D60111969C938E93009730
:101E300009F4E0C0FC0180E090E003C0119211922F
:101E40000196D80118962C91189730E082179307C5
:101E5000ACF3F40180819181009789F0EE24FF2496
:101E60005E010894A11CB11CB1E46B2E712C6C0EA8
:101E70007D1EA1E24A2E512C4C0E5D1E22C0D801BF
:101E800018968C9190E0880F991FCAD1F401918324
:101E90008083009709F4AEC0FC0180E090E0D80197
:101EA00007C01E962D913C911F9721933193019667
:101EB00018962C91189730E08217930794F38D01B0
:101EC000CDCFC801B501A6964FADA697E9DDD801E3
:101ED00018968C911897E82FF0E0A596FFAFEEAF1B
:101EE000A5971301F501A3965FAE4EAEA39793019C
:101EF00040E050E0A8965FAE4EAEA89737C0E11420
:101F0000F10461F0A896AEADBFADA8976D917C913C
:101F10001197808191816817790760F480819181A0
:101F2000A896AEADBFADA89711969C938E93E11481
:101F3000F10449F0D9016D917C91119780819181D3
:101F40008617970728F480819181D9018D939C93FE
:101F50004F5F5F4F2E5F3F4F3296A8968EAD9FAD7D
:101F6000A8970296A8969FAF8EAFA897A596AEADFC
:101F7000BFADA5974A175B0714F20894E11CF11C4A
:101F8000BAE0EB16F10409F09CCF80E090E02CC0A1
:101F9000F101419151911F01BC01660F771FD601DC
:101FA000ED91FC911197E60FF71F208131812417E5
:101FB000350710F451834083A396EEADFFADA39790
:101FC00041915191A396FFAFEEAFA397D401ED914C
:101FD000FC911197E60FF71F2081318142175307BB
:101FE00010F4518340830196F801208530E0821778
:101FF000930774F2C959DF4FE2E1E2C01F93CF9318
:10200000DF93EC01162F862F8150823050F4AE0101
:102010004E5F5F4FCE01BE0121E0EEDE123019F0BF
:102020000BC0662349F4BE016C5F7F4FAE014A5F6F
:102030005F4FCE0120E0E0DEDF91CF911F91089548
:10204000CF93DF93EC018A819B81009709F080D1C7
:102050008E819F81009709F07BD1888199810097BB
:1020600009F076D18C819D81009709F071D1DF91C3
:10207000CF910895DB018F939F937CD0BF91AF9157
:10208000A29F800D911DA39F900DB29F900D1124D2
:102090000895991B79E004C0991F961708F0961BC4
:1020A000881F7A95C9F780950895AA1BBB1B51E13B
:1020B00007C0AA1FBB1FA617B70710F0A61BB70BB8
:1020C000881F991F5A95A9F780959095BC01CD015D
:1020D000089597FB072E16F4009406D077FD08D0DC
:1020E000E4DF07FC05D03EF4909581959F4F08955D
:1020F000709561957F4F0895A1E21A2EAA1BBB1B14
:10210000FD010DC0AA1FBB1FEE1FFF1FA217B307C3
:10211000E407F50720F0A21BB30BE40BF50B661FD9
:10212000771F881F991F1A9469F76095709580959D
:1021300090959B01AC01BD01CF010895052E97FB41
:1021400016F400940FD057FD05D0D6DF07FC02D05F
:1021500046F408C050954095309521953F4F4F4F1C
:102160005F4F089590958095709561957F4F8F4F43
:102170009F4F089546D0A59F900DB49F900DA49FAA
:10218000800D911D112408952F923F924F925F92DE
:102190006F927F928F929F92AF92BF92CF92DF9277
:1021A000EF92FF920F931F93CF93DF93CDB7DEB7DC
:1021B000CA1BDB0B0FB6F894DEBF0FBECDBF099470
:1021C0002A88398848885F846E847D848C849B84C7
:1021D000AA84B984C884DF80EE80FD800C811B81D5
:1021E000AA81B981CE0FD11D0FB6F894DEBF0FBE04
:1021F000CDBFED010895EE0FFF1F0590F491E02D86
:102200000994A29FB001B39FC001A39F700D811DCF
:102210001124911DB29F700D811D1124911D0895EF
:10222000CF93DF938230910510F482E090E0E0914B
:102230003802F091390220E030E0A0E0B0E03097C1
:1022400039F14081518148175907B8F048175907AB
:1022500071F482819381109729F013969C938E9349
:1022600012972CC0909339028093380227C0211511
:10227000310531F04217530718F0A901DB0101C005
:10228000EF019A01BD01DF010280F381E02DD7CF7C
:1022900021153105F9F0281B390B2430310580F464
:1022A0008A819B816115710521F0FB0193838283F3
:1022B00004C09093390280933802FE01329644C0E4
:1022C000FE01E20FF31F819391932250310939836C
:1022D00028833AC02091360230913702232B41F4F3
:1022E000209132013091330130933702209336022E
:1022F00020913001309131012115310541F42DB784
:102300003EB74091340150913501241B350BE091CB
:102310003602F0913702E217F307A0F42E1B3F0BB1
:102320002817390778F0AC014E5F5F4F2417350747
:1023300048F04E0F5F1F509337024093360281934F
:10234000919302C0E0E0F0E0CF01DF91CF910895DA
:10235000CF93DF93009709F487C0FC013297138273
:102360001282C0913802D0913902209781F42081E5
:102370003181280F391F80913602909137028217E0
:10238000930779F5F0933702E09336026DC0DE01D2
:1023900020E030E0AE17BF0750F412964D915C91EB
:1023A00013979D014115510509F1DA01F3CFB3836C
:1023B000A28340815181840F951F8A179B0771F476
:1023C0008D919C911197840F951F02969183808324
:1023D00012968D919C9113979383828321153105D9
:1023E00029F4F0933902E09338023EC0D9011396E4
:1023F000FC93EE9312974D915D91A40FB51FEA17D0
:10240000FB0779F480819181840F951F0296D90191
:1024100011969C938E938281938113969C938E93B5
:102420001297E0E0F0E08A819B81009719F0FE01AD
:10243000EC01F9CFCE01029628813981820F931FDA
:1024400020913602309137022817390769F4309706
:1024500029F4109239021092380202C013821282BB
:10246000D0933702C0933602DF91CF91089510E0E8
:10247000CCEAD0E003C0FE01C0DE2296CE3AD107FE
:06248000D1F7F894FFCF34
:102486000101010101881301040400D007F4010FC2
:10249600009C01B501CF01EA010702260247026945
:1024A600028E02B502DE020A0302080E0F10111296
:1024B60000003A022000200000010203040506FF86
:1024C6006D56005072657373204200476F21003EBF
:0E24D6003E61333200536F6C76656421000066
:00000001FF
