:1000000033C000004CC000004AC0000048C00000DF
:1000100046C0000044C0000042C0000040C00000D4
:100020003EC0000040C500003AC0000038C00000DB
:1000300036C0000027C3000032C0000030C00000FE
:100040002EC000002CC000002AC0000028C0000004
:1000500026C0000024C0000022C0000020C0000014
:100060001EC000001CC0000011241FBECFEFD4E052
:10007000DEBFCDBF12E0A0E0B1E0E6EBFCE002C0E5
:1000800005900D92A235B107D9F722E0A2E5B2E0C2
:1000900001C01D92AD37B207E1F702D00AC6B0CF5A
:1000A00010927C0288E492E044D4CFE580917C02F7
:1000B0008F3550F549D3811127C080917C0290E0A3
:1000C000FC01EE0FFF1FEF5FFE4F60817181FC01AD
:1000D000E154FE4F4FE0808125D361E080E09ED463
:1000E000E0917C02F0E0E154FE4F60816F3F21F02F
:1000F00070E080E090E073D48FE492E01AD48091B5
:100100007C028F5F80937C0280E2C3D4882371F2EB
:1001100037D380917C028F3518F4C0937C0202C0E3
:1001200010927C0280E2A5D4C1CF90915702E09159
:100130005302F0915402992311F0849101C08081FF
:10014000282F21542A3110F4805E0895803271F4F2
:100150002091530230915402A9014F5F5F4F509399
:100160005402409353022115310509F70895EF9287
:10017000FF92CF93DF93D9DFC0E0D0E01AC09E0199
:10018000220F331F93E0CC0FDD1F9A95E1F7C20FCA
:10019000D31F992787FD9095C80FD91FE0978091AD
:1001A000530290915402019690935402809353020B
:1001B000BCDF982F90539A3010F3CE01DF91CF918E
:1001C000FF90EF90089510926F0083E2809380007B
:1001D00081E1809381001092820080E197E2909308
:1001E00089008093880010928B0010928A00229AD6
:1001F0007894089580915202882321F481E08093BD
:100200005202E1CF0895A0E0B0E0E8E0F1E011C5CE
:100210008C015B01E42EEEDF10921E0217FF04C07A
:100220001F77AAE0FA2E02C0FF24F394C090810049
:10023000DD2428EFC222DD2488EC3F2D389FC00149
:10024000112480179107D0F4E80167E20131160705
:1002500010F0C0E1D7E2BE017695679580E090E0AE
:100260006058794687469F4F9E0140E050E093D406
:10027000890181E090E0C82AD92A2BC098E2F99E32
:10028000902D112480E0892EE4014E01982EE40186
:100290008016910608F4E801BE01769567959E01E7
:1002A00040E050E08F2D8A3039F480E090E0605ECD
:1002B000734481449F4F06C080E090E060537D4EC0
:1002C0008C4E9F4F68D4890152E0852E912CC8280E
:1002D000D9282F2D2A3031F4CE0105966AE070E03E
:1002E00046D4EB0133E0C83ED30769F0BE0180E09D
:1002F00090E0950140E050E01FD428EE33E040E06C
:1003000050E06BD401C0950110926F00C092810043
:1003100010938900009388004091880050918900D3
:100320006E2D603108F06FE080E190E0861B91094E
:10033000BA0102C0769567958A95E2F770938B00B3
:1003400060938A0030935A022093590286B38FEF4C
:1003500086BB81E080936F00CDB7DEB7ECE085C44B
:100360009B018F3F11F0442329F488EE93E0B901FB
:1003700040E047C0813130F0582F5051503618F0CE
:100380005FE501C050E0852F6CE0E5D3A82FB0E019
:10039000E4EFFFEFAE9FB001AF9F700DBE9F700DF9
:1003A0001124650F711D6C30710540F4FB01EE0FD7
:1003B000FF1FE85DFD4F6081718102C060E070E069
:1003C000873081F0082E02C0660F771F0A94E2F78B
:1003D000823028F0CB0105966AE070E00CC06050D6
:1003E00070480AC0CB01B6E0880F991FBA95E1F7B3
:1003F000029665E070E0BBD3403108F04FE0CB01DE
:10040000B90101CFA0E0B0E0E7E0F2E011C4B090A4
:100410001F0280915502882359F06091560266238D
:1004200039F08FEF70E040E09BDF1092560226C15A
:10043000C0ECDDE5AA24A39414E0712E00ED17E0D2
:10044000B4E0EB2EF12CA4EFCA2EA1E0DA2EFFE0EF
:100450008F2E912C6ADE20915302309154022F5F2F
:100460003F4F30935402209353028636F1F1873682
:10047000CCF4823609F4A8C083367CF48E3349F17B
:100480008F333CF4813209F480C08C3309F094C07E
:1004900022C0813609F090C094C0843601F18536BF
:1004A0000CF51BC08F3609F445C0803744F48C36F8
:1004B00011F18D3659F1873609F07EC019C08437A5
:1004C00009F441C0863709F45AC0823709F074C074
:1004D00036C0B394BFCFBA94BDCFEE2432C0EE2461
:1004E00082E074C0EE2484E071C0EE2485E06EC02A
:1004F000EE2487E06BC03BDEBC0190932102809329
:100500002002809122029091230233C00EDE8C36AD
:1005100019F41092550204C0A0925502109256028E
:1005200080915302909154020196909354028093CB
:10053000530290CF1CDEB82E80931F028BCFEE2487
:10054000E39480E043C013DEBC01CE0110D3CB01A5
:10055000880F991F53E0660F771F5A95E1F7860FB2
:10056000971F909323028093220260912002709142
:100570002102FDD270932502609324026BCFF7DD38
:10058000909327028093260265CF70921F021093EA
:10059000230200932202F0922102E0922002D092E4
:1005A0002502C09224029092270280922602109285
:1005B000550244E0B42E4ECF1092540210925302D2
:1005C0005DC0EE2489E002C0EE248BE09CE0B99E81
:1005D000B02C1124B80EA9DD8B3211F08332B1F4A6
:1005E000809153029091540201969093540280930B
:1005F0005302B394F0CF809153029091540201962C
:100600009093540280935302BA948FDD8D3299F304
:10061000C0912402D09125028153883048F4C091C2
:100620002202D0912302A3DDBC01CE01A0D2EB01B6
:100630008E010BC0809153029091540201969093C9
:10064000540280935302C00FD11F169507956DDD9C
:100650008E3281F380915502882339F0CE01969530
:10066000879580935602C81BD109EE2011F0BB2458
:10067000BA948B2DBE014091260272DECDB7DEB753
:10068000EDE0F2C21F920F920FB60F9211242F933A
:100690003F934F935F936F937F938F939F93AF930A
:1006A000BF93EF93FF938091590290915A029C015E
:1006B0002150304030935A0220935902009709F597
:1006C00010926F00789480918100887F8160809380
:1006D000810080E197E290938900809388001092D6
:1006E0008B0010928A0081E080931E028091530259
:1006F00090915402009729F080915802882309F4C0
:1007000081DEFF91EF91BF91AF919F918F917F918A
:100710006F915F914F913F912F910F900FBE0F906E
:100720001F9018951DCE089580911E02882351F0C8
:1007300081E020915302309154022115310519F4C2
:1007400080E0089581E00895EFCF089510926F0042
:10075000E1E8F0E08081887F8160808380E197E23A
:10076000909389008093880010928B0010928A00E9
:1007700081E080931E021092540210925302089559
:10078000E5CF089581E090E06F9364E06A95F1F71A
:100790006F910197C9F708950F931F93CF93DF933C
:1007A0001AB157985A98289AC0E0D0E0EBDF5C9ACB
:1007B000E9DF09B15C98E6DF5C9AE4DF5C9807FF4B
:1007C00011C024969E0140E050E080915F0290911C
:1007D0006002A0916102B0916202281739074A07AE
:1007E0005B0720F31AB9DF91CF911F910F91089504
:1007F00065B190E0AC0141705070440F551F9C01F1
:100800002670307053E0220F331F5A95E1F7242BE6
:100810006D7C262B25B92BB18870907034E0880F41
:10082000991F3A95E1F72F77282B2BB95C9AAADF0D
:100830005C98A8CFA2E0B0E0EFE1F4E0FFC1182F90
:100840004A8369835AD0A8DFF4B005B1DAB0EBB0BF
:10085000289869814A81662311F05A9A01C05A98F2
:1008600084B1826384B9579A413021F0812F8295F7
:100870008F70BEDF812F8F70BBDFDAB8EBB8F4B8B2
:1008800005B92296E7E0F6C160E042E0D3CF61E02F
:1008900042E0D0CF60E041E0CDCF80E197E2A0E040
:1008A000B0E080935F0290936002A0936102B093E6
:1008B0006202529A209A549A8EE190E03BD183E0F2
:1008C000E9DF86E090E036D183E0E4DF82E090E08B
:1008D00031D183E0DFDF82E090E02CD182E0DADF0B
:1008E00082E090E027D188E2CFDF88E0CDDF81E0B1
:1008F000CBDF86E0C9DF8CE0C7CF8091630288231D
:1009000021F481E080936302C8CF0895EF92FF92B3
:10091000CF93DF93E82EE7017E01F92EE70101C0B6
:10092000B6DF89918823E1F7DF91CF91FF90EF90B7
:100930000895ECCF0895AAE0B0E0E0EAF4E07BC1CE
:100940009B01AC011AE0EAE0CE2ED12CE12CF12C77
:100950005E010894A11CB11C022FCA01B901A701B4
:10096000960119D11150F501E10FF11D005D922F93
:10097000990F892F880F880F890F081B0083211575
:1009800031054105510541F707C0F601E10FF11DA1
:1009900080817DDF1F5F04C06E010894C11CD11CE3
:1009A0001A3098F32A96EAE062C1EF92FF920F9311
:1009B0001F937B018C0197FF0AC010950095F0945E
:1009C000E094E11CF11C011D111D8DE260DFC801E6
:1009D000B701B1DF1F910F91FF90EF900895E5CF20
:1009E0000895A5E0B0E0E6EFF4E02CC1182F80E810
:1009F000898380EC8A8384E98B8384ED8C83FE0178
:100A0000E60FF11D8181810F6D833EDF10935E0241
:100A10006D8160935D022596E3E030C1E2CF0895D9
:100A200084B18D7C84B985B1826385B985E090E01D
:100A30006F9364E06A95F1F76F910197C9F7089594
:100A400080916402882321F481E080936402E8CFDE
:100A500008951F93182FF4DF83B18123E9F38AE00F
:100A600090E068D083B18123B9F383B181231F91D2
:100A70000895EFCF0895A1E0B0E0E0E4F5E0E3C031
:100A80008983DEDF93B19095898189232196E2E005
:100A9000F6C0F1CF08956F9364E06A95F1F76F9116
:100AA0000197C9F708952F928F939F932FB6809146
:100AB0007202909173020196809372029093730276
:100AC00090E080917402891F8093740290917A0261
:100AD0009C5F90937A028091790280519742C0F096
:100AE00090937A02809379028091750290917602B8
:100AF0000196809375029093760290E08091770240
:100B0000891F8093770280917802891F80937802F1
:100B10002FBE9F918F912F901895CF93DF93EC016B
:100B200004C088EE93E0B7DF21972097D1F7DF91DB
:100B3000CF910895F2CF0895DB018F939F9369D0F1
:100B4000BF91AF91A29F800D911DA39F900DB29F69
:100B5000900D11240895991B79E004C0991F9617F0
:100B600008F0961B881F7A95C9F780950895AA1BEF
:100B7000BB1B51E107C0AA1FBB1FA617B70710F088
:100B8000A61BB70B881F991F5A95A9F780959095BA
:100B9000BC01CD010895A1E21A2EAA1BBB1BFD01C9
:100BA0000DC0AA1FBB1FEE1FFF1FA217B307E4074C
:100BB000F50720F0A21BB30BE40BF50B661F771FA4
:100BC000881F991F1A9469F7609570958095909584
:100BD0009B01AC01BD01CF010895052E97FB16F4D2
:100BE00000940FD057FD05D0D6DF07FC02D046F4A5
:100BF00008C050954095309521953F4F4F4F5F4F1E
:100C0000089590958095709561957F4F8F4F9F4F78
:100C1000089540D0A59F900DB49F900DA49F800D86
:100C2000911D112408952F923F924F925F926F92DF
:100C30007F928F929F92AF92BF92CF92DF92EF926C
:100C4000FF920F931F93CF93DF93CDB7DEB7CA1BED
:100C5000DB0B0FB6F894DEBF0FBECDBF09942A8818
:100C6000398848885F846E847D848C849B84AA84C0
:100C7000B984C884DF80EE80FD800C811B81AA814D
:100C8000B981CE0FD11D0FB6F894DEBF0FBECDBF18
:100C9000ED010895A29FB001B39FC001A39F700D05
:100CA000811D1124911DB29F700D811D1124911D74
:060CB0000895F894FFCF47
:100CB60001640019007D007D007D007D007D00FA45
:100CC60000FA00FA00FA00FA0077017D00FA0077D0
:100CD60001FA00FA007D00FA00A700A700A700FAB3
:100CE600007D007D007D00FA007D007D00770177A4
:100CF600017D00FA007701FA00FA007D00FA00A7EC
:100D060000A700A700FA007D007D007D00FA007DA7
:100D1600007D007701FA007D007D007D00FA007DF0
:100D2600007D007D007D007D007D007D007D007DD5
:100D360000FA007D007D007D00FA007D007D00C880
:100D460000320064001900F401FA007D007D007D88
:100D560000FA007D007D007D007D007D007D007D28
:100D6600007D007D00FA00FA007D007701F4014065
:100D7600FF40FF40FF3C4043FF37FF3C37FF34391D
:100D86003B3A39374043454143FF403C3E3B3C37C5
:100D9600FF34393B3A39374043454143FF403C3EF7
:100DA6003BFF4342413F40FF38393CFF393C3EFF61
:100DB6004342413F40FF48FF48FF48FF4342413F0F
:100DC60040FF38393CFF393C3EFF3FFF3E3C0104C3
:100DD6000400D007F4010F009C01B501CF01EA0120
:100DE60007022602470269028E02B502DE020A03E4
:100DF600020800007D0220004D7573696321002002
:020E06002000CA
:00000001FF
