:100000009DC10000C2C10000C0C10000BEC100000F
:10001000BCC10000BAC10000B8C10000B6C10000F8
:10002000B4C100000C94F00DB0C10000AEC10000DE
:10003000ACC100000C94360AA8C10000A6C10000A3
:10004000A4C10000A2C10000A0C100009EC1000028
:100050009CC100009AC1000098C1000096C1000038
:1000600094C1000092C10000202020202020200701
:1000700020467567756520696E2044204D696E6F56
:1000800072202D206279204A2E532E20426163680F
:100090002007202020202020200021205431323031
:1000A0004F354C313661676166616561206461631B
:1000B0002B61646165612066613C61613C626163E2
:1000C00023612064616323616461656120664F364A
:1000D0006463643C622D643C61643C6720643C66FC
:1000E0002B643C67643C61643C622D20643C646426
:1000F0003C65643C662B643C6720643C662B643C36
:1001000067643C61644C384D533C622D643C622D05
:1001100064204D4C652D3C67652D3C67204D536335
:100120003C61633C61204D4C643C66643C66204FFE
:10013000354D53622D67622D674D4C3E6323653EFE
:10014000632365204D532061666166204D4C206716
:100150006323676323204D532066646664204D4CFF
:1001600020653C622D653C622D4F364C3136726104
:1001700067616661656120646163236164616561D3
:100180002066613C61613C6261632361206461635C
:100190002361646165612066616561646163613CDE
:1001A000622D61636164673C622D672065676467E7
:1001B00063673C622D67203C61673C622D67636624
:1001C0003C616620646663663C622D663C61663C09
:1001D00067663C61663C622D653C6765206323650C
:1001E0003C622D653C61653C6765203C66653C670B
:1001F000653C61643C66644F35653E65653E656699
:100200003E64663E6420622D3E6323622D3E63237E
:10021000613E64663E6420653E65653E65663E649B
:10022000663E64653E643E63233E64623E643E63B4
:100230002362203E63236167616567666520664FC0
:100240003664632364666463233C62206323340062
:1002500000020105091E080404060505041C1C0013
:10026000000000000000001F1F1F1F1F1F1F21761E
:10027000383E3E633332002167333200216533322A
:100280000021633332003E3E6333323E6733320037
:100290003E6733323E3E633332000642007F4120E8
:1002A000A54220437E0054696D6572005472696DE9
:1002B000706F74004D75736963004D6F746F727366
:1002C0000053656E736F7273004C4344004C454499
:1002D0007300426174746572790020204D656E75FB
:1002E0000020204D61696E002020796F752100206B
:1002F0005468616E6B20002D74727920697421003E
:10030000507265737320420073656C6563742E00D0
:10031000557365204220746F0050726F6772616D73
:100320000044656D6F0033F720526F626F740020D8
:10033000506F6C6F6C750000BD0EBE0E11241FBE99
:10034000CFEFD4E0DEBFCDBF11E0A0E0B1E0E8E93F
:10035000F6E202C005900D92AA37B107D9F722E064
:10036000AAE7B1E001C01D92A930B207E1F713E09E
:10037000CAE3D3E004C02297FE010E940612C833EC
:10038000D107C9F7CCD40C9440133ACEDC011296B5
:10039000ED91FC91139716968C9190816F3F11F41B
:1003A000982703C0662319F0982B908308958095B1
:1003B0008923808308959FD5BC01882777FD809588
:1003C000982F0E94610C89E591E00E94FC0B84E665
:1003D00090E00C94370EAAE0B0E0E1EFF1E00C946D
:1003E000D71180E20E94E60D882311F060E001C081
:1003F00061E0CE0101960E94860E8E010F5F1F4FB5
:100400007E018BE0E80EF11C89ECC82ED12CF8019E
:10041000819191918F01B6010E945E11605C7E4FC7
:10042000FB0180810E947E0B0E151F0581F780E283
:100430000E94E60D882319F08CE591E002C080E669
:1004400091E00E94FC0B84E690E00E94370E2A9611
:10045000E8E00C94F311CF93DF9382E00E94E60D65
:1004600020917C0130917D018823E1F0232B81F4E0
:1004700088EC90E00E94370E82E00E94E60D811128
:1004800007C081E090919501911180E080939501E2
:1004900080917C0190917D010A9690937D018093DB
:1004A0007C0106C02451310930937D0120937C01E9
:1004B00080E20E94E60D20917A0130917B01882331
:1004C000E1F0232B81F488EC90E00E94370E80E26B
:1004D0000E94E60D811107C081E090919401911175
:1004E00080E08093940180917A0190917B010A963B
:1004F00090937B0180937A0106C024513109309397
:100500007B0120937A0180917C0190917D0197FF7E
:1005100004C010927D0110927C0180917C01909129
:100520007D018F3F910539F034F08FEF90E090938B
:100530007D0180937C0180917A0190917B0197FFEE
:1005400004C010927B0110927A0180917A019091FF
:100550007B018F3F910539F034F08FEF90E090935D
:100560007B0180937A0180917C0190917D012AE149
:1005700030E0B9010E947211605C7E4FFB01D081B6
:1005800080917A0190917B01B9010E947211605CA7
:100590007E4FFB01C0818D2F0E947E0B80919501C3
:1005A000882311F081E601C081E40E947E0B8D2F2B
:1005B0000E947E0B60E085E00E94800C8C2F0E94E0
:1005C0007E0B80919401882311F083E601C083E4BF
:1005D0000E947E0B8C2F0E947E0B20917A0130911D
:1005E0007B0180919401882319F08FEF9FEF02C067
:1005F00081E090E0289FB001299F700D389F700D19
:10060000112420917C0130917D01809195018823F6
:1006100019F08FEF9FEF02C081E090E0AC01249FC2
:10062000C001259F900D349F900D11240E94860DCE
:1006300082E390E00E94370EDF91CF9108950F93EF
:100640001F930E946E0E00919001109191012091D4
:10065000920130919301601B710B820B930B6B3FE6
:1006600071058105910550F100E010E080918F0146
:10067000F801E80FF11D87FDFA95E859FF4F8491C5
:100680000E947E0B0F5F1F4F0830110579F70E9403
:100690006E0E6093900170939101809392019093FC
:1006A000930180918F018F5F80938F01992787FD40
:1006B00090950896C29710F010928F0137D781114C
:1006C00003C08AE990E04DD784E690E00E94370E9F
:1006D0001F910F9108954F925F926F927F928F9228
:1006E0009F92AF92BF92CF92DF92EF92FF920E94C1
:1006F0006E0EC0908B01D0908C01E0908D01F09037
:100700008E01CD28CE28CF2811F1C0908301D09042
:100710008401E0908501F09086019B01AC012C19C9
:100720003D094E095F098090870190908801A09053
:100730008901B0908A01820E931EA41EB51E80927C
:10074000870190928801A0928901B0928A016093FA
:10075000830170938401809385019093860182E0E8
:100760000E94E60D8823E9F080918201811119C071
:1007700081E08093820110928B0110928C01109283
:100780008D0110928E0110928701109288011092B3
:10079000890110928A01CAD6811103C081E892E0D2
:1007A000E0D682E00E94E60D811102C01092820123
:1007B00080E20E94E60D882329F180918101811158
:1007C00021C081E08093810181E090E0A0E0B0E071
:1007D00040918B0150918C0160918D0170918E013F
:1007E000452B462B472B19F080E090E0DC018093ED
:1007F0008B0190938C01A0938D01B0938E0187E7BC
:1008000092E0AFD680E20E94E60D811102C0109204
:100810008101609187017091880180918901909197
:100820008A0120EC37E249E050E00E94A7119AE0EB
:10083000C92ED12CE12CF12CCA01B901A7019601D6
:100840000E94A7110E94610C60918701709188013C
:100850008091890190918A0120E63AEE40E050E0D3
:100860000E94A711CA01B901A70196010E94A71110
:100870000E94610C8AE342D76091870170918801E0
:100880008091890190918A0128EE422E23E0522E18
:10089000612C712CA30192010E94A7116CE3862E9A
:1008A000912CA12CB12CCA01B901A50194010E947F
:1008B000A711A70196010E94A711CA01B9010E94C0
:1008C000610C6091870170918801809189019091FC
:1008D0008A01A30192010E94A711CA01B901A501D1
:1008E00094010E94A711A70196010E94A711B62E9C
:1008F000E8D78EE203D760918701709188018091DB
:10090000890190918A0124E630E040E050E00E94A5
:10091000A711CA01B901A70196010E94A711D1D759
:1009200060918701709188018091890190918A017D
:10093000A70196010E94A711CA01B901A70196015A
:100940000E94A711BED780918001B81691F08091C6
:10095000870190918801A0918901B0918A01892B2A
:100960008A2B8B2B31F0E2D5811103C08EE692E009
:10097000F8D5B0928001FF90EF90DF90CF90BF90BC
:10098000AF909F908F907F906F905F904F90089561
:10099000A7E0B0E0EEECF4E00C94DD1129E230E0E9
:1009A0003A8329832BE230E03C832B832AE230E038
:1009B0003E832D8392E09F83682FCE010196E6DC73
:1009C000ED81FE8180819F81892B80832796E2E0E3
:1009D0000C94F911A7E0B0E0E0EFF4E00C94DD1125
:1009E00029E230E03A8329832BE230E03C832B83F9
:1009F0002AE230E03E832D8390E89F83682FCE016A
:100A00000196C4DCED81FE8180819F81892B8083EA
:100A10002796E2E00C94F9110F931F93CF93DF9385
:100A20000E946E0E062F80917C008F7D80937C004B
:100A300005D2BC0180E090E044D784E691E0DCD6AA
:100A40000E946E0E162F101B1436B4F4F7D1EC0171
:100A50004FE068EC70E073D32AE01202C001112469
:100A6000C817D90724F480E093DF81E003C081E058
:100A70008FDF80E0AFDFE4CFDF91CF911F910F9147
:100A80000895809100018F5F80930001089560E0D8
:100A900080E692E031D661E081E692E02DD662E018
:100AA00082E692E029D663E084E692E025D664E00F
:100AB00085E692E021D665E086E692E01DD666E006
:100AC00080E592E019D667E088E592E015D67FC60A
:100AD000CF93DF93C9E1D0E08AE090E00E94370E27
:100AE00080E10E94E60D811105C021972097A1F7B2
:100AF00080E001C081E0DF91CF9108958FE691E021
:100B000022D588E691E078D681E042DFE1DF8111ED
:100B100014C03EDFDDDF811110C08EE691E013D5F9
:100B200060E080E0EDD683E791E066D681E052DFB9
:100B3000CFDF811102C04EDFCBCF0895A2E0B0E03D
:100B4000E4EAF5E00C94DB118B0189839A833FD6AC
:100B500089819A8160D661E080E0D2D6C8015BD6F7
:100B600088EE93E00E94370E2296E4E00C94F71191
:100B7000CF9382E30E94C40DC82F81FF03C081E898
:100B800092E007C084FF03C08CE792E002C087E7D1
:100B900092E0E7D48C2F0E94D60D8C2FCF91089530
:100BA00080ED97E00E94BB0E72DF80E992E0D9D41D
:100BB00066E273E08FE293E0C1DF69E173E081E216
:100BC00093E0BCDF68E073E080E193E0B7DFFFD53E
:100BD00080E093E020D661E080E092D687EF92E05B
:100BE0001AD6C6DF84FFFDCF86E892E0BAD468EE5D
:100BF00072E08FEE92E0A2CF1F93CF93DF936AED66
:100C000072E081EE92E09ADFC6E0D0E0E0D561E0EC
:100C100080E076D68DE992E0FED560E080E070D687
:100C2000E0917E01F0917F01EE0FFF1FEF5FFE4F1D
:100C300080819181F0D581E06BD682E3C7D78111A5
:100C4000FCCF82E3A1D7182F81FF09C081E892E091
:100C500088D480917E0190917F01019746C084FFE6
:100C60003AC05AD6B4D58CE792E07BD4812F9ED778
:100C700080E1ACD7811116C061E080E041D68AE9FD
:100C800092E0C9D560E080E03BD6E0917E01F09132
:100C90007F01EE0FFF1FE55BFE4F0190F081E02D1D
:100CA0000995E6CF60E070E080E090E02FD775D442
:100CB00010927D0110927C0110927B0110927A01BA
:100CC00080E066DE80E086DE8CE792E04AD4DF9149
:100CD000CF911F91089585FF0CC087E792E041D422
:100CE00080917E0190917F01019690937F01809386
:100CF0007E0180917E0190917F0197FF04C0D09387
:100D00007F01C0937E0180917E0190917F010797C2
:100D10000CF47CCF10927F0110927E0177CF40DFE0
:100D20006BDFFECF882321F480917C008F7D03C090
:100D300080917C00806280937C00089580917C008B
:100D400090E025E0959587952A95E1F781700895C3
:100D500080917A0090E036E0959587953A95E1F795
:100D600081700895EBDF882321F02091790030E035
:100D700004C02091780030917900C9010895803233
:100D8000B0F497E890937A0090917C00292F20642A
:100D9000662311F0906C02C0922F9F77907E982B63
:100DA00090937C0080917A00806480937A0008950B
:100DB000A0E0B0E0EEEDF6E00C94D7116B0160E03E
:100DC000DEDFC6DF8823E9F7E601EE24FF24870192
:100DD00080917A00806480937A00BADF8823E9F7F3
:100DE000C1DFA0E0B0E0E80EF91E0A1F1B1F21972B
:100DF00079F7C6019695879520E4C216D10440F490
:100E00008E0D9F1D6C2D70E00E945E11CB010DC0F8
:100E1000BC0180E090E06E0D7F1D801F911F960148
:100E200040E050E00E948511C901CDB7DEB7E8E08F
:100E30000C94F31187E064E170E0BACFFBCF089522
:100E4000A3E0B0E0E6E2F7E00C94DC11BC0180E046
:100E500090E020910F013091100140E050E00E949D
:100E60004311182F69837A839B8368DF69817A81B4
:100E70009B81882371F09B01412F592FCA01B90131
:100E800061587F4F8F4F9F4F2FEF30E040E050E091
:100E90000DC09B01412F592FCA01B90161507E4FEE
:100EA0008F4F9F4F2FEF33E040E050E00E948511BD
:100EB000C9012396E3E00C94F8117ADFC1CF1F93A8
:100EC000CF93DF933BDF182F80E02CDF86E06AE0D2
:100ED00070E0F3DFEC01812F25DF9E01220F331F2D
:100EE0002C0F3D1F2F5F3F4F36952795C901DF918E
:100EF000CF911F910895E3CF089590919B01E091C8
:100F00009701F0919801992311F0849101C080819B
:100F1000282F21542A3110F4805E0895803271F414
:100F20002091970130919801A9014F5F5F4F509335
:100F30009801409397012115310509F70895EF9223
:100F4000FF92CF93DF93D9DFC0E0D0E01AC09E01BB
:100F5000220F331F93E0CC0FDD1F9A95E1F7C20FEC
:100F6000D31F992787FD9095C80FD91FE0978091CF
:100F70009701909198010196909398018093970121
:100F8000BCDF982F90539A3010F3CE01DF91CF91B0
:100F9000FF90EF90089510926F0083E2809380009D
:100FA00081E1809381001092820080E197E290932A
:100FB00089008093880010928B0010928A00229AF8
:100FC0007894089580919601882321F481E080939C
:100FD0009601E1CF0895A0E0B0E0E1EFF7E00C94D6
:100FE000D3118C015B01E42EEDDF1092110117FF8C
:100FF00004C01F77AAE0FA2E02C0FF24F394C09029
:101000008100DD2428EFC222DD2488EC3F2D389FAB
:10101000C001112480179107D8F4E80167E201317B
:10102000160710F0C0E1D7E2BE017695679580E023
:1010300090E06058794687469F4F9E0140E050E01F
:101040000E948511890181E090E0C82AD92A2CC02C
:1010500098E2F99E902D112480E0892EE4014E0142
:10106000982EE4018016910608F4E801BE017695F9
:1010700067959E0140E050E08F2D8A3039F480E082
:1010800090E0605E734481449F4F06C080E090E032
:1010900060537D4E8C4E9F4F0E948511890152E016
:1010A000852E912CC828D9282F2D2A3039F4CE012D
:1010B00005966AE070E00E945E11EB0133E0C83EE5
:1010C000D30779F0BE0180E090E0950140E050E068
:1010D0000E94431128EE33E040E050E00E94A71147
:1010E00001C0950110926F00C09281001093890099
:1010F0000093880040918800509189006E2D6031E6
:1011000008F06FE080E190E0861B9109BA0102C00F
:10111000769567958A95E2F770938B0060938A00C5
:1011200030939E0120939D0186B38FEF86BB81E0B3
:1011300080936F00CDB7DEB7ECE00C94EF114BCF8E
:1011400008959B018F3F11F0442329F488EE93E02A
:10115000B90140E049C0813130F0582F505150362C
:1011600018F05FE501C050E0852F6CE00E9452113D
:10117000A82FB0E0E4EFFFEFAE9FB001AF9F700D7E
:10118000BE9F700D1124650F711D6C30710540F408
:10119000FB01EE0FFF1FE55EFE4F6081718102C013
:1011A00060E070E0873081F0082E02C0660F771F84
:1011B0000A94E2F7823028F0CB0105966AE070E0ED
:1011C0000CC0605070480BC0CB01B6E0880F991F6F
:1011D000BA95E1F7029665E070E00E945E11403139
:1011E00008F04FE0CB01B901F6CEA0E0B0E0EBEFA4
:1011F000F8E00C94D211B0901201809199018823EB
:1012000059F060919A01662339F08FEF70E040E069
:1012100098DF10929A0126C1C0ECDDE5AA24A394C0
:1012200014E0712E00ED17E0B4E0EB2EF12CA4EFEA
:10123000CA2EA1E0DA2EFFE08F2E912C5EDE2091E7
:101240009701309198012F5F3F4F30939801209381
:1012500097018636F1F18736CCF4823609F4A8C0BE
:1012600083367CF48E3349F18F333CF4813209F4B8
:1012700080C08C3309F094C022C0813609F090C040
:1012800094C0843601F185360CF51BC08F3609F405
:1012900045C0803744F48C3611F18D3659F18736CC
:1012A00009F07EC019C0843709F441C0863709F4BB
:1012B0005AC0823709F074C036C0B394BFCFBA9415
:1012C000BDCFEE2432C0EE2482E074C0EE2484E070
:1012D00071C0EE2485E06EC0EE2487E06BC02FDE87
:1012E000BC0190931401809313018091150190919A
:1012F000160133C002DE8C3619F41092990104C035
:10130000A092990110929A01809197019091980171
:101310000196909398018093970190CF10DEB82E9C
:10132000809312018BCFEE24E39480E043C007DE6C
:10133000BC01CE01C3D7CB01880F991F53E0660FC4
:10134000771F5A95E1F7860F971F909316018093A8
:1013500015016091130170911401B0D770931801B9
:10136000609317016BCFEBDD90931A018093190105
:1013700065CF709212011093160100931501F0923F
:101380001401E0921301D0921801C09217019092BB
:101390001A01809219011092990144E0B42E4ECFA7
:1013A00010929801109297015DC0EE2489E002C06E
:1013B000EE248BE09CE0B99EB02C1124B80E9DDD8C
:1013C0008B3211F08332B1F48091970190919801A2
:1013D00001969093980180939701B394F0CF8091F8
:1013E00097019091980101969093980180939701AD
:1013F000BA9483DD8D3299F3C0911701D091180111
:101400008153883048F4C0911501D091160197DDC1
:10141000BC01CE0153D7EB018E010BC08091970127
:101420009091980101969093980180939701C00F35
:10143000D11F1695079561DD8E3281F38091990158
:10144000882339F0CE019695879580939A01C81B21
:10145000D109EE2011F0BB24BA948B2DBE0140912E
:1014600019016FDECDB7DEB7EDE0B8C71F920F925E
:101470000FB60F9211242F933F934F935F936F9367
:101480007F938F939F93AF93BF93EF93FF9380913D
:101490009D0190919E019C012150304030939E010E
:1014A00020939D01009709F510926F007894809128
:1014B0008100887F81608093810080E197E2909332
:1014C00089008093880010928B0010928A0081E03E
:1014D000809311018091970190919801009729F0D4
:1014E00080919C01882309F480DEFF91EF91BF91E8
:1014F000AF919F918F917F916F915F914F913F91AC
:101500002F910F900FBE0F901F9018958091110191
:10151000882351F081E020919701309198012115A5
:10152000310519F480E0089581E00895EFCF089522
:1015300010926F00909398018093970110929B01F5
:1015400010929A0152CEF4CF089510926F009093AA
:1015500098018093970181E080939B0110929A01FA
:1015600044CEF3CF089510926F00E1E8F0E080815F
:10157000887F8160808380E197E2909389008093E7
:10158000880010928B0010928A0081E080931101F4
:1015900010929801109297010895E5CF089581E087
:1015A00090E06F9364E06A95F1F76F910197C9F746
:1015B00008950F931F93CF93DF931AB157985A98BA
:1015C000289AC0E0D0E0EBDF5C9AE9DF09B15C98D3
:1015D000E6DF5C9AE4DF5C9807FF11C024969E0169
:1015E00040E050E08091A3019091A401A091A50159
:1015F000B091A601281739074A075B0720F31AB9EB
:10160000DF91CF911F910F91089565B190E0AC01EA
:1016100041705070440F551F9C012670307053E08C
:10162000220F331F5A95E1F7242B6D7C262B25B909
:101630002BB18870907034E0880F991F3A95E1F7CC
:101640002F77282B2BB95C9AAADF5C98A8CFA2E051
:10165000B0E0ECE2FBE0ACC6182F4A83698383D08C
:10166000A8DFF4B005B1DAB0EBB0289869814A81FF
:10167000662311F05A9A01C05A9884B1826384B9E2
:10168000579A413021F0812F82958F70BEDF812FD4
:101690008F70BBDFDAB8EBB8F4B805B92296E7E093
:1016A000A3C660E042E0D3CF61E042E0D0CFEF924A
:1016B000FF921F93DF93CF930F92CDB7DEB7660FE4
:1016C000660F660F482F592F7A0110E0812F860F81
:1016D00080646983E6DFF7018491E6DF1F5F089489
:1016E000E11CF11C6981183089F70F90CF91DF91CF
:1016F0001F91FF90EF900895DACF0895D5CF089508
:1017000060E041E0A4CF80E197E2A0E0B0E0809308
:10171000A3019093A401A093A501B093A601529AAE
:10172000209A549A8EE190E0A2D283E0E9DF86E02D
:1017300090E09DD283E0E4DF82E090E098D283E005
:10174000DFDF82E090E093D282E0DADF82E090E0B7
:101750008ED288E2A6DF88E0A4DF81E0A2DF86E007
:10176000A0DF8CE09ECF8091A701882321F481E047
:101770008093A701C8CF089581E093DF80919F01F6
:101780009091A001009711F1A0E0B0E208C0E091B3
:101790009F01F091A001E20FF31FB083AF5F2A2FEA
:1017A00030E08091330190E001976091340170E066
:1017B000869FA001879F500D969F500D11242417DE
:1017C00035072CF31092A2011092A1010895D4CFF5
:1017D0000895EF92FF92CF93DF93E82EE7017E0109
:1017E000F92EE70101C060DF89918823E1F7DF91DD
:1017F000CF91FF90EF900895ECCF0895CF93DF93B2
:10180000EC0102C051DF2196FE0184918823D1F7BB
:10181000DF91CF910895F2CF0895AAE0B0E0E2E120
:10182000FCE0C3C59B01AC011AE0EAE0CE2ED12C4E
:10183000E12CF12C5E010894A11CB11C022FCA01FD
:10184000B901A701960161D51150F501E10FF11D14
:10185000005D922F990F892F880F880F890F081B21
:101860000083211531054105510541F707C0F601F7
:10187000E10FF11D808118DF1F5F04C06E01089425
:10188000C11CD11C1A3098F32A96EAE0AAC5EF923F
:10189000FF920F931F937B018C0197FF0AC0109555
:1018A0000095F094E094E11CF11C011D111D8DE2E6
:1018B000FBDEC801B701B1DF1F910F91FF90EF90E0
:1018C0000895E5CF0895A5E0B0E0E8E6FCE074C532
:1018D000182F80E8898380EC8A8384E98B8384EDE8
:1018E0008C83FE01E60FF11D8181810F6D83D9DEAE
:1018F0001093A2016D816093A1012596E3E078C564
:10190000E2CF0895813011F48FE001C08EE0C9CE9E
:10191000F9CF08958CE0C5CEFDCF0895FC0111826A
:10192000108213821282158214821682683068F443
:1019300089E290E0918380838BE290E093838283BD
:101940008AE290E09583848311C06E30C0F483E214
:1019500090E09183808385E290E09383828384E2A8
:1019600090E09583848370E06850704081E090E05F
:1019700002C0880F991F6A95E2F786830895653142
:10198000B8F486E290E09183808388E290E09383CC
:10199000828387E290E09583848370E06E5070408C
:1019A00081E090E002C0880F991F6A95E2F7868374
:1019B0000895FC01A481B5818681662321F09C9164
:1019C000982B9C9308959C91809589238C930895DE
:1019D000FC016F3F31F4A281B3818C9196818927FC
:1019E0000CC0A281B3818681662321F09C91982B43
:1019F0009C9308959C91809589238C930895A7E0EA
:101A0000B0E0E4E0FDE0D6C4282FF62E8E010F5F93
:101A10001F4FC801622F82DFC8016F2DD9DFC801B7
:101A200061E0C7DF2796E5E0E1C4E0EBF0E083EF9B
:101A30008083808184BDE1EBF0E082E0808380815F
:101A400085BDE4EBF0E010828081E3EBF0E0808381
:101A5000808188BD88B587BD86E060E0D0DF85E005
:101A600060E0CDDF8BE060E0CADF83E060E0C7CFFD
:101A70008091A801882321F481E08093A801D5CF2B
:101A80000895CF93DF93EC01F3DFD7FF05C0D09526
:101A9000C195DF4F81E001C080E0CF3FD10519F053
:101AA00014F0CFEFD0E0882319F018BCC7BD02C0F6
:101AB000C8BD17BCDF91CF910895CF93DF93EC01A0
:101AC000D7DFD7FF05C0D095C195DF4F81E001C0BA
:101AD00080E0CF3FD10519F014F0CFEFD0E088239C
:101AE00029F01092B400C093B30004C0C093B400B6
:101AF0001092B300DF91CF910895CF93DF93EB0164
:101B0000C0DFCE01DADFDF91CF910895F6CF0895DF
:101B100084B18D7C84B985B1826385B985E090E01C
:101B20006F9364E06A95F1F76F910197C9F7089593
:101B30008091A901882321F481E08093A901E8CF55
:101B400008951F93CF93DF93182FF2DFC12FD0E0BA
:101B500023B130E0209530952C233D23211531050C
:101B6000B9F38AE090E083D023B130E0209530953E
:101B70002C233D232115310559F383B18095812311
:101B8000DF91CF911F910895DCCF08951F93182FF7
:101B9000CFDF83B18123E9F38AE090E068D083B19D
:101BA0008123B9F383B181231F910895EFCF089565
:101BB000A1E0B0E0EDEDFDE000C48983B9DF93B1B1
:101BC0009095898189232196E2E013C4F1CF08958D
:101BD0006F9364E06A95F1F76F910197C9F70895E3
:101BE0002F928F939F932FB68091B7019091B80158
:101BF00001968093B7019093B80190E08091B9016C
:101C0000891F8093B9019091BF019C5F9093BF01A0
:101C10008091BE0180519742C0F09093BF018093A4
:101C2000BE018091BA019091BB0101968093BA01E7
:101C30009093BB0190E08091BC01891F8093BC010F
:101C40008091BD01891F8093BD012FBE9F918F910F
:101C50002F901895CF93DF93EC0104C088EE93E0AA
:101C6000B7DF21972097D1F7DF91CF910895F2CF79
:101C70000895E0E7F0E080818E7F8083A0EBB0E004
:101C80008C9183608C93A1EBB0E08C91807F8C93DE
:101C90008C9182608C93B89A8081816080837894E3
:101CA00008958091C001882321F481E08093C001D0
:101CB000E0CF0895F6DFE0E7F0E080818E7F80835B
:101CC0002091BA013091BB014091BC015091BD01FE
:101CD000808181608083B901CA010895EBCF0895A6
:101CE000E0DFE0E7F0E080818E7F80831092BA0130
:101CF0001092BB011092BC011092BD011092BF0165
:101D00001092BE0180818160808308959C01462FDE
:101D100081EC91E0B90147C20F93DF93CF9300D0DC
:101D200000D00F92CDB7DEB79C01962FDE01119641
:101D3000E5E3F1E085E001900D928150E1F7BE010D
:101D40006F5F7F4F992329F081EC91E045E00FEF21
:101D500004C081EC91E045E003E16CD081EC91E0BE
:101D600042D0BEDF0F900F900F900F900F90CF9149
:101D7000DF910F91089560E0CFCF089581EC91E05D
:101D800068C26F9364E06A95F1F76F910197C9F7A4
:101D90000895A7E0B0E0EEECFEE00DC38C01FC017D
:101DA0001182108213821282158214821782168287
:101DB000613118F080E1808702C0FC016087F80182
:101DC000208BCE010196642FA9DD8F81F8018187D8
:101DD0008B819C81938782878D819E819587848763
:101DE0002796E4E004C3FC01A485B585109771F043
:101DF0008C919185892B8C93A285B3859C9181854B
:101E0000809589238C9388EC90E0BBCF0895FC01EA
:101E1000A485B585109769F08C919185892B8C9359
:101E2000A285B3858C919185892B8C9388EC90E069
:101E3000A8CF0895A7E0B0E0EFE1FFE0AEC27C01DB
:101E40001B01642F3901402F20E0A3DF97012F5B96
:101E50003F4FF9011082D701AE5BBF4F1C92C70103
:101E60008D5B9F4FFC011082F701778666866624A2
:101E70002E010894411C511C6C015D01490128C0D0
:101E8000062D10E0F101E00FF11FC201608146DD77
:101E90002F81F701E00FF11F218B89819A81F801D1
:101EA000EE0FFF1FEE0DFF1D92A381A3833291055C
:101EB00011F4F40109C08632910511F4F50104C052
:101EC0008932910521F4F6018081822B808363940D
:101ED000F70180856816A0F22796E2E17AC2A0E0B9
:101EE000B0E0E4E7FFE05EC2EC015B01FC01EF5B08
:101EF000FF4F9080FC01EE5BFF4F8080FC01ED5BAB
:101F0000FF4F708080E009C0E82FF0E0EE0FFF1F68
:101F1000EA0DFB1D118210828F5F98858917A0F34F
:101F200084B121E4E22EF12CEC0EFD1ED7019C9130
:101F3000892B84B987B18E010E5B1F4FF801908108
:101F4000892B87B98AB193E4C92ED12CCC0EDD1E22
:101F5000D6019C91892B8AB985B1F7019081892B93
:101F600085B988B1D8019C91892B88B98BB1F601CC
:101F70009081892B8BB98AE090E003DF94B1D7017F
:101F80008C918095892384B997B1F80180818095DF
:101F9000892387B99AB1D6018C91809589238AB912
:101FA00095B1F70180818095892385B998B1D801D1
:101FB0008C918095892388B99BB1F60180818095A9
:101FC00089238BB9C090B000E090B1008091B0003F
:101FD00083608093B00082E08093B1000091B200F2
:101FE00080E090E039C02091B200201B820F911D4B
:101FF000020FF3B0F91409F04DC096B0981409F02F
:1020000049C029B1271509F045C024C0212F30E06F
:10201000A901440F551FF501E40FF51F608171817F
:102020006115710599F44C0F5D1FDA0191964D9180
:102030005C919297DA014C912C0F3D1FD90151967A
:102040002C915197422311F4918380831F5F28853F
:102050001217E0F2892C9F2C2E853F85821793075B
:1020600010F2C092B000E092B10020E00FC0E22F69
:10207000F0E0EE0FFF1FEA0DFB1D808191810097BC
:1020800021F48E859F85918380832F5F8885281713
:1020900070F305C0F3B096B079B010E0D8CFCDB7EB
:1020A000DEB7EDE09BC1EF92FF920F931F93CF93AA
:1020B000DF93FC019B0100917C0010917A00E7B056
:1020C000F8B080917A0086FDFCCF80E00AC0A82F8E
:1020D000B0E0AA0FBB1FA20FB31F11961C921E9255
:1020E0008F5F9085891798F397B182A18095892396
:1020F00087B998B182A18095892388B987E88093B0
:102100007A0070E029C0DF01A60FB11D51968C91B5
:102110005197806480937C0080917A0080648093E2
:102120007A0080917A0086FDFCCFA62FB0E0AA0F3E
:10213000BB1FA20FB31F40917800509179008D9181
:102140009C911197840F951F11969C938E936F5FAE
:1021500080856817C0F27F5F81A1781710F460E076
:10216000F7CF40E013C0C42FD0E0CC0FDD1FC20F6B
:10217000D31F61A170E0CB0195958795A881B981A6
:102180008A0F9B1F9BD0798368834F5F8085481798
:1021900050F300937C0010937A00F8B8E7B8CDB7FD
:1021A000DEB7E6E022C1A0E2B0E0E8EDF0E100C178
:1021B0008C017B01D42E842F8150823010F4C80111
:1021C00026DED80150968C915097882371F4C8016F
:1021D000B70185DEC80107DEBD2DB230B9F5C801F3
:1021E000BE016F5F7F4F7BDE0DC0C801B7015BDFB3
:1021F000C801F9DDED2DE23049F5C801BE016F5F80
:102200007F4F51DF60E0AE014F5F5F4F1BC0862FF5
:1022100090E0880F991FF701E80FF91F840F951FB1
:10222000D8011E962D913C911F97DC018D919C91B8
:102230001197281B390B80819181820F931F918305
:1022400080836F5FF8018085681708F3A096E7E048
:10225000CBC0CF93DF93EC018A819B81009709F07B
:1022600080D18E819F81009709F07BD188819981EF
:10227000009709F076D18C819D81009709F071D18A
:10228000DF91CF910895DB018F939F937CD0BF9115
:10229000AF91A29F800D911DA39F900DB29F900DB5
:1022A00011240895991B79E004C0991F961708F02E
:1022B000961B881F7A95C9F780950895AA1BBB1BAA
:1022C00051E107C0AA1FBB1FA617B70710F0A61B36
:1022D000B70B881F991F5A95A9F780959095BC0157
:1022E000CD01089597FB072E16F4009406D077FDD4
:1022F00008D0E4DF07FC05D03EF4909581959F4F10
:102300000895709561957F4F0895A1E21A2EAA1B3A
:10231000BB1BFD010DC0AA1FBB1FEE1FFF1FA21795
:10232000B307E407F50720F0A21BB30BE40BF50B92
:10233000661F771F881F991F1A9469F7609570951B
:10234000809590959B01AC01BD01CF010895052EAC
:1023500097FB16F400940FD057FD05D0D6DF07FC8D
:1023600002D046F408C050954095309521953F4FD6
:102370004F4F5F4F089590958095709561957F4F71
:102380008F4F9F4F089546D0A59F900DB49F900DFD
:10239000A49F800D911D112408952F923F924F927A
:1023A0005F926F927F928F929F92AF92BF92CF92E5
:1023B000DF92EF92FF920F931F93CF93DF93CDB7EE
:1023C000DEB7CA1BDB0B0FB6F894DEBF0FBECDBF66
:1023D00009942A88398848885F846E847D848C8437
:1023E0009B84AA84B984C884DF80EE80FD800C8140
:1023F0001B81AA81B981CE0FD11D0FB6F894DEBF23
:102400000FBECDBFED010895EE0FFF1F0590F491B3
:10241000E02D0994A29FB001B39FC001A39F700D4E
:10242000811D1124911DB29F700D811D1124911DDC
:102430000895CF93DF938230910510F482E090E00D
:10244000E0910702F091080220E030E0A0E0B0E067
:10245000309739F14081518148175907B8F0481732
:10246000590771F482819381109729F013969C93F8
:102470008E9312972CC0909308028093070227C076
:102480002115310531F04217530718F0A901DB017E
:1024900001C0EF019A01BD01DF010280F381E02D4F
:1024A000D7CF21153105F9F0281B390B2430310520
:1024B00080F48A819B816115710521F0FB01938372
:1024C000828304C09093080280930702FE01329633
:1024D00044C0FE01E20FF31F819391932250310912
:1024E000398328833AC02091050230910602232BBC
:1024F00041F420913C0130913D013093060220933C
:10250000050220913A0130913B012115310541F43A
:102510002DB73EB740913E0150913F01241B350B32
:10252000E0910502F0910602E217F307A0F42E1BDA
:102530003F0B2817390778F0AC014E5F5F4F241727
:10254000350748F04E0F5F1F509306024093050277
:102550008193919302C0E0E0F0E0CF01DF91CF9151
:102560000895CF93DF93009709F487C0FC01329759
:1025700013821282C0910702D0910802209781F441
:1025800020813181280F391F809105029091060228
:102590008217930779F5F0930602E09305026DC068
:1025A000DE0120E030E0AE17BF0750F412964D91E7
:1025B0005C9113979D014115510509F1DA01F3CFA3
:1025C000B383A28340815181840F951F8A179B0793
:1025D00071F48D919C911197840F951F02969183B0
:1025E000808312968D919C911397938382832115FA
:1025F000310529F4F0930802E09307023EC0D901A7
:102600001396FC93EE9312974D915D91A40FB51F15
:10261000EA17FB0779F480819181840F951F029658
:10262000D90111969C938E938281938113969C93EA
:102630008E931297E0E0F0E08A819B81009719F079
:10264000FE01EC01F9CFCE01029628813981820F7B
:10265000931F20910502309106022817390769F46B
:10266000309729F4109208021092070202C01382D8
:102670001282D0930602C0930502DF91CF91089594
:1026800013E0CAE3D3E003C0FE01C0DE2296CC33E0
:08269000D107D1F7F894FFCF48
:1026980001D202CD02AC02C102BA02B402A602887B
:1026A8001301040400D007F4010F009C01B501CF09
:1026B80001EA0107022602470269028E02B502DE1C
:1026C800020A0302080E0F1011120000090220006E
:1026D800200000010203030405FF07DB017E050C4F
:1026E80005EB012B021F036B036D560049522D00A9
:1026F80020204300202020005265642020003E63F3
:0A270800333200477265656E000071
:00000001FF
