:1000000033C000004CC000004AC00000C4C2000061
:10001000C2C20000C0C2000042C0000040C00000D8
:100020003EC00000D0C100003AC0000038C000004F
:1000300036C0000034C0000032C0000030C00000F4
:100040002EC000002CC000002AC0000028C0000004
:1000500026C0000024C0000022C0000020C0000014
:100060001EC000001CC0000011241FBECFEFD4E052
:10007000DEBFCDBF11E0A0E0B1E0E6E3F8E002C0F2
:1000800005900D92A431B107D9F711E0A4E1B1E0D8
:1000900001C01D92A633B107E1F708D0CAC3B0CFA3
:1000A000809112018F5F80931201089580E161E1D8
:1000B00042E123E151D380E060E07BD156D39C0143
:1000C000B901882777FD8095982F54D180E091E081
:1000D000FBD084E060E06DD151D39C01B901882749
:1000E00077FD8095982F46D180E091E0EDD047D202
:1000F000009731F080E061E05CD182E091E0E4D0F3
:1001000044D2009731F080E061E053D18AE091E081
:10011000DBD082E390E09ED1CECF81E090E06F9380
:1001200064E06A95F1F76F910197C9F708950F930D
:100130001F93CF93DF931AB157985A98289AC0E02B
:10014000D0E0EBDF5C9AE9DF09B15C98E6DF5C9A0E
:10015000E4DF5C9807FF11C024969E0140E050E068
:100160008091180190911901A0911A01B0911B0181
:10017000281739074A075B0720F31AB9DF91CF9197
:100180001F910F91089565B190E0AC0141705070DE
:10019000440F551F9C012670307053E0220F331F0F
:1001A0005A95E1F7242B6D7C262B25B92BB188704D
:1001B000907034E0880F991F3A95E1F72F77282B3C
:1001C0002BB95C9AAADF5C98A8CFA2E0B0E0EAEE77
:1001D000F0E003C3182F4A8369835AD0A8DFF4B034
:1001E00005B1DAB0EBB0289869814A81662311F035
:1001F0005A9A01C05A9884B1826384B9579A41309F
:1002000021F0812F82958F70BEDF812F8F70BBDF31
:10021000DAB8EBB8F4B805B92296E7E0FAC260E0C4
:1002200042E0D3CF61E042E0D0CF60E041E0CDCF0B
:1002300080E197E2A0E0B0E080931801909319016B
:10024000A0931A01B0931B01529A209A549A8EE1FE
:1002500090E000D183E0E9DF86E090E0FBD083E02E
:10026000E4DF82E090E0F6D083E0DFDF82E090E040
:10027000F1D082E0DADF82E090E0ECD088E2CFDFFC
:1002800088E0CDDF81E0CBDF86E0C9DF8CE0C7CF3F
:1002900080911C01882321F481E080931C01C8CF48
:1002A0000895EF92FF92CF93DF93E82EE7017E014E
:1002B000F92EE70101C0B6DF89918823E1F7DF91CC
:1002C000CF91FF90EF900895ECCF0895AAE0B0E0B1
:1002D000EBE6F1E07FC29B01AC011AE0EAE0CE2E32
:1002E000D12CE12CF12C5E010894A11CB11C022F31
:1002F000CA01B901A701960143D21150F501E10FDE
:10030000F11D005D922F990F892F880F880F890F9B
:10031000081B0083211531054105510541F707C030
:10032000F601E10FF11D80817DDF1F5F04C06E01CA
:100330000894C11CD11C1A3098F32A96EAE066C2D0
:10034000EF92FF920F931F937B018C0197FF0AC0DE
:1003500010950095F094E094E11CF11C011D111D15
:100360008DE260DFC801B701B1DF1F910F91FF90EF
:10037000EF900895E5CF0895A5E0B0E0E1ECF1E05D
:1003800030C2182F80E8898380EC8A8384E98B83CC
:1003900084ED8C83FE01E60FF11D8181810F6D8359
:1003A0003EDF109317016D81609316012596E3E0FF
:1003B00034C2E2CF08956F9364E06A95F1F76F91CC
:1003C0000197C9F708952F928F939F932FB680912D
:1003D0001E0190911F01019680931E0190931F01B1
:1003E00090E080912001891F809320019091260147
:1003F0009C5F909326018091250180519742C0F027
:1004000090932601809325018091210190912201F2
:100410000196809321019093220190E08091230125
:10042000891F8093230180912401891F80932401D7
:100430002FBE9F918F912F901895CF93DF93EC0152
:1004400004C088EE93E0B7DF21972097D1F7DF91C2
:10045000CF910895F2CF0895FC011182108213828A
:100460001282158214821682683068F489E290E064
:10047000918380838BE290E0938382838AE290E091
:100480009583848311C06E30C0F483E290E0918341
:10049000808385E290E09383828384E290E0958379
:1004A000848370E06850704081E090E002C0880F63
:1004B000991F6A95E2F7868308956531B8F486E25C
:1004C00090E09183808388E290E09383828387E247
:1004D00090E09583848370E06E50704081E090E0FE
:1004E00002C0880F991F6A95E2F786830895A7E0F6
:1004F000B0E0ECE7F2E076C1682FCE010196ACDF08
:1005000089819A818332910531F480916B009F81BA
:10051000892B80936B0089819A818632910531F411
:1005200080916C009F81892B80936C0089819A81D6
:100530008932910531F480916D009F81892B8093E0
:100540006D00ED81FE8190818F818095892380836C
:100550008FEF809368002796E2E060C1A7E0B0E0EB
:10056000E3EBF2E03FC1682FCE01019675DFE98130
:10057000FA8190818F8189232796E2E04FC1809193
:1005800029011092290190E008958091280110928C
:10059000280190E008951F920F920FB60F92112438
:1005A000FF920F931F932F933F934F935F936F93FC
:1005B0007F938F939F93AF93BF93EF93FF9380911C
:1005C0002E01CCDFF82E80913001C8DF182F8091EA
:1005D0002F01C4DF082F80913101C0DF409133012A
:1005E000609132015091350190913401F41651F02F
:1005F00020912C0130912D012F5F3F4F30932D0121
:1006000020932C01061751F020912C0130912D01DF
:100610002150304030932D0120932C01151751F0BB
:1006200020912A0130912B012F5F3F4F30932B01F6
:1006300020932A01891751F020912A0130912B0132
:100640002150304030932B0120932A01EF2DF0E010
:10065000772767FD7095E617F70759F0602F70E070
:10066000552747FD50956417750719F021E0209331
:100670002901412F50E0292F332727FD30954217BC
:10068000530769F0482F50E020913501332727FDAB
:1006900030954217530719F091E090932801F0929A
:1006A0003201009333011093340180933501FF919F
:1006B000EF91BF91AF919F918F917F916F915F91DA
:1006C0004F913F912F911F910F91FF900F900FBE6F
:1006D0000F901F901895A3E0B0E0E0E7F3E082C030
:1006E00080932E0160932F014093300120933101BC
:1006F000F8942B834A836983FADE6981862FF7DEBB
:100700004A81842FF4DE2B81822FF1DE10922D019D
:1007100010922C0110922B0110922A0110922901A3
:100720001092280180912E0119DF8093320180916F
:100730002F0114DF80933301809130010FDF80930C
:100740003401809131010ADF809335018FEF8BBB3B
:1007500078942396E2E062C0BECF0895F894809129
:100760002C0190912D0178940895F8CF0895F89474
:1007700080912A0190912B0178940895F8CF0895E3
:10078000A1E21A2EAA1BBB1BFD010DC0AA1FBB1F95
:10079000EE1FFF1FA217B307E407F50720F0A21B07
:1007A000B30BE40BF50B661F771F881F991F1A9474
:1007B00069F760957095809590959B01AC01BD019E
:1007C000CF0108952F923F924F925F926F927F9246
:1007D0008F929F92AF92BF92CF92DF92EF92FF9251
:1007E0000F931F93CF93DF93CDB7DEB7CA1BDB0BFD
:1007F0000FB6F894DEBF0FBECDBF09942A883988A2
:1008000048885F846E847D848C849B84AA84B984A8
:10081000C884DF80EE80FD800C811B81AA81B981B4
:10082000CE0FD11D0FB6F894DEBF0FBECDBFED01C8
:060830000895F894FFCFCB
:1008360020004572726F722031004572726F72200D
:04084600320001007B
:00000001FF
