:1000000045C0000060C000005EC000005CC0000091
:10001000BAC20000B8C20000B6C20000B4C20000FC
:1000200052C0000050C000004EC00000A6C1000039
:100030004AC0000048C0000046C0000044C00000A4
:1000400042C0000040C000003EC000003CC00000B4
:100050003AC0000038C0000036C0000034C00000C4
:1000600032C0000030C000002EC000002CC00000D4
:100070002AC0000028C0000026C0000024C00000E4
:1000800022C0000020C000001EC0000011241FBEBE
:10009000CFEFD0E4DEBFCDBF11E0A0E0B1E0EEE2F3
:1000A000F8E000E00BBF02C007900D92A431B10749
:1000B000D9F711E0A4E1B1E001C01D92A633B10768
:1000C000E1F708D0B2C39CCF809112018F5F80937B
:1000D0001201089582E163E144E125E139D380E032
:1000E00060E041D13ED39C01B901882777FD80951E
:1000F000982F1AD180E091E0C1D084E060E033D144
:1001000039D39C01B901882777FD8095982F0CD1B0
:1001100080E091E0B3D02BD2009731F080E061E035
:1001200022D182E091E0AAD028D2009731F080E07D
:1001300061E019D18AE091E0A1D082E390E064D13E
:10014000CECF81E090E06F9364E06A95F1F76F9114
:100150000197C9F708951F93CF93DF9317B13F9885
:100160002898299AC0E0D0E0ECDF2B9AEADF86B12C
:100170002B9887FF11C022969E0140E050E08091AD
:10018000180190911901A0911A01B0911B01281733
:1001900039074A075B0740F317B9DF91CF911F91E9
:1001A000089588B92B9ACDDF2B98CBCFA2E0B0E091
:1001B000EBEDF0E011C36A83898341D0CCDF07B156
:1001C00018B129986A818981662311F0289A01C0A3
:1001D00028989FEF97B9E5DF07B918B92296E4E0B0
:1001E00017C360E042E0E2CF80E197E2A0E0B0E038
:1001F0008093180190931901A0931A01B0931B01E9
:10020000209A219A239A8EE190E0FED080E3E9DFE4
:1002100086E090E0F9D080E3E4DF82E090E0F4D083
:1002200080E3DFDF82E090E0EFD088E3DADF88E090
:10023000D8DF81E0D6DF86E0D4DF8CE0D2CF8091BA
:100240001C01882321F481E080931C01CDCF089507
:1002500061E042E0ABCFEF92FF92CF93DF93E82EC5
:10026000E7017E01F92EE70101C0F2DF89918823C1
:10027000E1F7DF91CF91FF90EF900895ECCF0895D3
:10028000AAE0B0E0E5E4F1E0A1C29B01AC011AE014
:100290008AE0C82ED12CE12CF12C5E010894A11C1F
:1002A000B11C022FCA01B901A701960165D21150F4
:1002B000F501E10FF11D005D922F990F892F880F35
:1002C000880F890F081B0083211531054105510551
:1002D00041F707C0F601E10FF11D8081B9DF1F5F13
:1002E00004C06E010894C11CD11C1A3098F32A96E0
:1002F000EAE088C2EF92FF920F931F937B018C017B
:1003000097FF0AC010950095F094E094E11CF11C51
:10031000011D111D8DE29CDFC801B701B1DF1F91E6
:100320000F91FF90EF900895E5CF0895A5E0B0E01C
:10033000EBE9F1E052C2182F80E8898380EC8A83D0
:1003400084E98B8384ED8C83FE01E60FF11D8181AE
:10035000810F6D8346DF109317016D816093160145
:100360002596E3E056C2E2CF08956F9364E06A9564
:10037000F1F76F910197C9F708952F928F939F938B
:100380002FB680911E0190911F01019680931E014E
:1003900090931F0190E080912001891F809320019C
:1003A000909126019C5F90932601809125018051B8
:1003B0009742C0F0909326018093250180912101FE
:1003C000909122010196809321019093220190E067
:1003D00080912301891F8093230180912401891F2B
:1003E000809324012FBE9F918F912F901895CF93CA
:1003F000DF93EC0104C088EE93E0B7DF21972097EC
:10040000D1F7DF91CF910895F2CF0895FC011182C9
:10041000108213821282158214821682683068F468
:1004200089E290E0918380838BE290E093838283E2
:100430008AE290E09583848323C0603180F483E274
:1004400090E09183808385E290E09383828384E2CD
:1004500090E09583848370E06850704011C06831EB
:10046000C0F486E290E09183808388E290E09383F9
:10047000828387E290E09583848370E060517040CE
:1004800081E090E002C0880F991F6A95E2F78683A9
:1004900008956032C0F480E290E09183808382E22C
:1004A00090E09383828381E290E0958384832FE1BF
:1004B00030E0261B310981E090E002C0880F991FCF
:1004C0002A95E2F786830895A7E0B0E0E9E6F2E036
:1004D00085C1682FCE01019699DF89819A8180328A
:1004E000910531F480916B009F81892B80936B0083
:1004F00089819A818332910531F480916C009F81CA
:10050000892B80936C0089819A818632910531F420
:1005100080916D009F81892B80936D0089819A81E4
:100520008932910531F4809173009F81892B8093EA
:100530007300ED81FE8190818F8180958923808376
:100540008FEF809368002796E2E064C1A7E0B0E0F7
:10055000EBEAF2E043C1682FCE01019657DFE98153
:10056000FA8190818F8189232796E2E053C180919F
:1005700029011092290190E008958091280110929C
:10058000280190E008951F920F920FB60F920BB6BC
:100590000F921124FF920F931F932F933F934F932A
:1005A0005F936F937F938F939F93AF93BF93EF93DB
:1005B000FF9380912E01CADFF82E80913001C6DFB3
:1005C000182F80912F01C2DF082F80913101BEDFEB
:1005D0004091330160913201509135019091340185
:1005E000F41651F020912C0130912D012F5F3F4FD7
:1005F00030932D0120932C01061751F020912C01EE
:1006000030912D012150304030932D0120932C0149
:10061000151751F020912A0130912B012F5F3F4F88
:1006200030932B0120932A01891751F020912A0140
:1006300030912B012150304030932B0120932A011F
:10064000EF2DF0E0772767FD7095E617F70759F073
:10065000602F70E0552747FD50956417750719F016
:1006600021E020932901412F50E0292F332727FD36
:1006700030954217530769F0482F50E0209135011B
:10068000332727FD30954217530719F091E09093D7
:100690002801F092320100933301109334018093CA
:1006A0003501FF91EF91BF91AF919F918F917F9114
:1006B0006F915F914F913F912F911F910F91FF90FB
:1006C0000F900BBE0F900FBE0F901F901895A3E0D8
:1006D000B0E0ECE6F3E082C080932E0160932F013E
:1006E0004093300120933101F8942B834A8369832E
:1006F000EBDE6981862FE8DE4A81842FE5DE2B81DF
:10070000822FE2DE10922D0110922C0110922B010B
:1007100010922A01109229011092280180912E0135
:1007200015DF8093320180912F0110DF8093330118
:10073000809130010BDF809334018091310106DF1D
:10074000809335018FEF8BBB78942396E2E062C0F3
:10075000BECF0895F89480912C0190912D0178944A
:100760000895F8CF0895F89480912A0190912B0173
:1007700078940895F8CF0895A1E21A2EAA1BBB1B06
:10078000FD010DC0AA1FBB1FEE1FFF1FA217B3075D
:10079000E407F50720F0A21BB30BE40BF50B661F73
:1007A000771F881F991F1A9469F760957095809537
:1007B00090959B01AC01BD01CF0108952F923F920E
:1007C0004F925F926F927F928F929F92AF92BF9261
:1007D000CF92DF92EF92FF920F931F93CF93DF930D
:1007E000CDB7DEB7CA1BDB0B0FB6F894DEBF0FBE6A
:1007F000CDBF09942A88398848885F846E847D84B7
:100800008C849B84AA84B984C884DF80EE80FD80B8
:100810000C811B81AA81B981CE0FD11D0FB6F8942E
:0E082000DEBF0FBECDBFED010895F894FFCFEF
:10082E0020004572726F722031004572726F722015
:04083E003200010083
:00000001FF
